:1000000000000420750300005D0300005F03000092
:1000100061030000630300006503000000000000AE
:100020000000000000000000000000006703000066
:1000300069030000000000006B0300006D03000076
:100040006F0300006F030000991600000517000001
:100050006F0300006F0300006F0300006F030000D8
:100060006F0300006F0300006F0300006F030000C8
:100070006F0300006F0300006F0300006F030000B8
:100080006F0300006F0300006F0300006F030000A8
:100090006F0300006F0300006F0300006F03000098
:1000A0006F0300006F0300006F0300006F03000088
:1000B0006F0300006F03000000000000000000005C
:1000C0006F0300006F0300006F0300006F03000068
:1000D0006F0300006F0300006F0300006F03000058
:1000E0006F0300006F0300006F03000000000000BA
:1000F000000000006F030000000000006F0300001C
:1001000000000000000000000000000000000000EF
:1001100000000000000000000000000000000000DF
:1001200000000000000000000000000000000000CF
:1001300000000000000000000000000000000000BF
:1001400000000000000000000000000000000000AF
:10015000000000000000000000000000000000009F
:10016000000000000000000000000000000000008F
:10017000000000000000000000000000000000007F
:10018000000000000000000000000000000000006F
:10019000000000000000000000000000000000005F
:1001A000000000000000000000000000000000004F
:1001B000000000000000000000000000000000003F
:1001C000000000000000000000000000000000002F
:1001D000000000000000000000000000000000001F
:1001E000000000000000000000000000000000000F
:1001F00000000000000000000000000000000000FF
:10020000354936480A1A02D0072291438D463449AF
:1002100034480A1A06D00722914381F30988022242
:1002200082F3148830483149314A00F044F83148AB
:100230003149324A00F03FF831483249324A00F041
:100240003AF832483249334A00F035F832483349F7
:10025000334A00F030F833483349344A00F02BF881
:1002600033483449344A00F026F8344834490022EF
:1002700000F02CF833483449002200F027F83348C6
:100280003349091A082902DB002202604160314A21
:1002900090471F481F49884205D00268043003B4C4
:1002A000904703BCF7E700208646EC46002000217B
:1002B000294A9047FEE7884207D0521A05D00378B2
:1002C00001300B700131013AF9D17047884202D0F8
:1002D00002700130FAE770470000042000E00320BC
:1002E0000000042000000420D82E000000000020A0
:1002F00034000020D4030000D4030000822A000050
:10030000D82E00000000002000000020D02A0000AD
:10031000D02A0000D02A0000D02A0000D02A0000F5
:10032000D02A0000D02A0000D02A0000D62E0000DB
:100330000C2F000034000020340000203400002086
:10034000BA060020BC060020BC060020BC06002027
:10035000BC2600209D03000045260000FEE7FEE7C6
:10036000FEE7FEE7FEE7FEE7FEE7FEE7FEE7FEE765
:10037000704700BF1048804710484FF0070188437E
:1003800085460F4880470F48016841F470010160BD
:10039000BFF34F8FBFF36F8FFFF732BF0A480B4990
:1003A0000B4A884207D0521A05D0037801300B70EF
:1003B0000131013AF9D170477103000000000420B7
:1003C000F526000088ED00E0D02A000000000020A3
:0403D0000000002009
:1003D400F0B595B01D46164608460C4601F000F8E7
:1003E4001A9B0D93CDE9086500252B46082205A923
:1003F40020460A958DF82C500C9501F00DF8079BBA
:100404000293069B03939DF814308DF8115003F06A
:100414000302012A1DD1BDF81420059DC3F3C203B4
:10042400C2F383168DF81030B20008230EA92046BB
:1004340000F0F2FFC5F3952508AB0093324602ABFA
:100444000EA9284600F0C2FB204600F0CDFF15B0EF
:10045400F0BD022AF8D1BDF81650C3F3C203C5F3A8
:1004640089158DF810300827082D2E4628BF082638
:100474003B4632460EA9204600F0CEFFAD1B08AB2A
:1004840002AA31460EA8374400F004FC002DEBD13B
:10049400DAE70000014B01221A7070477500002052
:1004A4007047000070B50E4D06460FCD88B06C46FF
:1004B4000FC495E80F00002E84E80F00094A0A488B
:1004C4004FF0060308BF00226946009301F0A4F828
:1004D40008B100F03FFC054B1E7008B070BD00BFB2
:1004E400D02A0000990400000000002034000020FD
:1004F40007B5044B0093044A4023FFF769FF03B098
:100504005DF804FB110500003500002038B50D48E6
:100514000D4C0E4D002323700378EB5CD2B263B113
:10052400043001F0DBFF08B100F014FC084B1A782A
:1005340012B12378002BFBD038BD0C3001F0AAFD9A
:10054400F1E700BF0000002075000020280600200D
:100554003400002008B50848084A0378D35C3BB14E
:10056400043001F05BFFBDE808400020FFF79ABFAC
:100574000C3001F02FFDF6E70000002028060020D3
:100584000120FFF78FBF000008B5FFF7F9FF04480B
:10059400042100F085FA034B01225A7108BD00BF03
:1005A400AC2A000014000020037813F0040216D0D3
:1005B40003F00303012B03D0022B09D00120704761
:1005C4000A6800880232C0F3831002440A60F5E727
:1005D4000B684288023303EB92130B60EEE710467C
:1005E400704700002DE9F04FDFF824A10F4685B0D5
:1005F4000446861C0020154600F002FCDAF80010C0
:100604003960DAE90132134401335B1A0AF21C47F8
:100614000AF583690AF21448B3421BD30020002D63
:1006240072D004F00F039B0143F0050363F30F0042
:10063400DAF80020DAF808301340033332444AF879
:1006440023000020CAF8002000F0DCFB012005B0E4
:10065400BDE8F08F0121384600F0F9FB484600F070
:100664000EFC404600F00BFCDAF80400DAF808B09F
:10067400009000EA0B0003300AEB80006946FFF7A4
:1006840093FF009B50BB0BEA03020AEB820203F1C7
:10069400020CD2680192013303EA0B0B0AEB8B0BB9
:1006A40002F00302012ADBF80C10CDF800C023D0BD
:1006B400022A16D08346404600F0E4FB10B1009BAA
:1006C400CAF804305946384600F0C1FBDAE9012380
:1006D4001344DAF8002001339B1A9DE70BEA030068
:1006E400C9E7BDF80630C3F3891303334FEA114B4E
:1006F4000CEB93030093DEE7BDF80430C3F38313DC
:100704004FEA114B6344F5E7A40544F006008FE774
:10071400480100200B4B0C48FF2210B59A600022C0
:10072400C3F81824C3E90022C3F8142483F820244E
:1007340000F00FFE044610B9044800F077FE20468E
:1007440010BD00BF48010020BC2A0000242B00007B
:1007540030B50A4C71B10A4A0A49121BD208002367
:100764009A4201D1002030BD31F82350854202D095
:100774000133F5E7034654F83300F4E7842A000014
:10078400AC2A000000000020094B013903EBC00033
:10079400032909D8DFE801F00A020406042070479F
:1007A40000797047407970470020704702207047F5
:1007B400842A0000034BD3E90030C31A584258413D
:1007C400704700BF480100202DE9F04385B0FFF7D2
:1007D400F1FF0646002840F0FA807E4CC4F8180465
:1007E400BFF34F8F6368A56800932B40033304EB7A
:1007F40083006946FFF7D8FE009B18B1D4F818248B
:10080400002A62D005EA0302991C013304EB820238
:100814002B4004EB8303D268DB68029302F00303EA
:10082400022B0192009163D1BDF806306A48C3F3EC
:100834008917502FB84628BF4FF0500808F1080117
:1008440068F38F13C1F30901ADF8063000F099FD88
:100854000646002800F0A68000F0C2FD002308220E
:1008640001A9304600F0CEFD009925EA01020132CB
:10087400B8EB820F4FEA820333D95FFA88F863B387
:100884002940DDB2A8EB050803315FFA88F9A846D0
:10089400524D04EB810108234246304600F0B2FD7C
:1008A4003DB108F10803DBB24A462946304600F060
:1008B400A9FD009B033703EB97070097D4F818347E
:1008C400002B4BD1D4F810545BE022689A428CD8A8
:1008D4006260304605B0BDE8F08340491D46994644
:1008E400D9E7294003310823424604EB8101DDE7BF
:1008F400012B57D1BDF804303748C3F383110629BF
:1009040028BF062161F38913023101F00F01890028
:10091400ADF8043000F035FD0646002842D000F062
:100924005FFD0023082201A9304600F06BFD00277B
:10093400BDF80420C2F38312BB00974203F10803FD
:10094400BCD200994A1C29400331009204EB810176
:100954000422304600F056FD0137E9E7304600F046
:1009640043FDFFF727FF80F00100C6B2B1E7EB6853
:100974005B7923B12B6831461B6828469847EB689E
:100984001D68002DF3D1304600F02EFD284600F0FE
:1009940037FAD4F818340BB9009B6360002000F0D8
:1009A40031FADEE7D4F8104454B90D4B0D480E4922
:1009B400C01AC008000440F0020000F063F8D0E759
:1009C400236820469B689847E3681C68ECE7002688
:1009D4007FE700BF48010020BC2A0000540100202A
:1009E400842A0000A42A00000D2B00002DE9F74FF3
:1009F400224E04460F46924601A901221846D6F813
:100A040008909B46FFF7EEFD20B3019D4FF00008D0
:100A1400AA1CD84508EB020126D11948002100F090
:100A2400F3F980F31000000440EA1440E4006B1C66
:100A340004F0380403EA090305EA090544F0010453
:100A440006EB8303033544EA881444EA8724D86018
:100A540046F8254096F820341BB1FFF7B5FE002870
:100A6400FBD103B0BDE8F08F09EA010106EB810177
:100A74005AF82830CB6008F10108CAE74801002081
:100A84006405002000231A46FFF7B0BF07B5012311
:100A9400019201AAFFF7AAFF03B05DF804FB00006E
:100AA40030B50F4CD4F8102403460020114631B958
:100AB400D96808714AB9C4F810340A6030BDC968ED
:100AC4000D79854206D00968F1E7D26814680C6094
:100AD4001360F3E701300A28E8D14FF0FF30EDE767
:100AE4004801002038B5084B0125D3F8104483F899
:100AF400205404B938BDE3685D71236820465B68FF
:100B04009847E3681C68F4E74801002030B5C388BF
:100B140085B004460D4633B1144A00921449154A6F
:100B2400284600F009FA217A05291DD0637A4BB1D1
:100B3400A088FFF729FE104B104953F820202846BF
:100B440000F0FAF9227A0E4BA08853F8222003927F
:100B54000021FFF7FDFD039A0A490346284605B024
:100B6400BDE8304000F0E8B905B030BD502B0000BE
:100B7400382B0000302B0000BC2B0000552B00004C
:100B8400E02B0000582B000007B503460846197AED
:100B9400052911D05B7A2BB1094A0A49019000F06A
:100BA400CBF901980849019000F0C6F9019803B007
:100BB4005DF804EB00F0B5B9002AF8D0F2E700BF05
:100BC400502B0000552B00004D2B00002DE9F04365
:100BD40085B01F460C9D002395F80C902B73064698
:100BE4000C46904629463846FFF790FFB8F1060FA9
:100BF40009D8DFE808F00412181F283340003146F2
:100C0400284600F099F9002229463846FFF7BCFF30
:100C140085F80C9005B0BDE8F0832268314628467B
:100C240000F08AF9EFE7D4E900233146284600F0C2
:100C340083F9E8E7A36800933146D4E90023284602
:100C440000F07AF9DFE7E3680193A3680093314683
:100C5400D4E90023284600F06FF9D4E7236902930E
:100C6400E3680193A36800933146D4E9002328463E
:100C740000F062F9C7E76369039323690293E368A9
:100C84000193A36800933146D4E90023284600F079
:100C940053F9B8E708292DE9F74F80460E46174661
:100CA4001C463DD800251B7B257321461046019325
:100CB400FFF72CFFDFF88CA0DFF88CB0AE4232D9FE
:100CC40018F805205946204600F036F90135082D5C
:100CD400F4D11B49DFF874A0DFF874B0204600F0AB
:100CE4002BF94FF000094E4524D918F809507E2DF0
:100CF4001ED8284601F032FE002814BF2A462E22B0
:100D04005946204600F018F909F10109B9F1080F14
:100D1400E9D1012221463846FFF736FF019B2373B0
:100D240003B0BDE8F08F5146204600F005F9CDE749
:100D34002E22E5E75146204600F0FEF8E4E700BF26
:100D44006C2B0000682B0000622B00006A2B000053
:100D54006E2B00001FB50021039001AA44F201008C
:100D6400CDE9011100F004F805B05DF804FB0000C2
:100D740038B572B6FFF7B6FEFFF726FD0028FBD1A3
:100D8400104B114C114D1249E41AE408240444F0A8
:100D94000100FFF777FED5F8F030DB0700D500BE81
:100DA4000C4944F00200FFF76DFEBFF34F8FEA6871
:100DB400094B02F4E0621343EB60BFF34F8F00BFB3
:100DC400FDE700BF842A0000A42A000000ED00E033
:100DD400F42B0000002C00000400FA0572B6024A4D
:100DE400136801331360704704060020034A136834
:100DF400013B136003B962B6704700BF04060020CC
:100E0400FFF7ECBFFFF7F2BF10B5034653E8000F3E
:100E14000A4643E8002494F0000FF7D110BD10B542
:100E2400034653E8002F42EA010043E8000494F02B
:100E3400000FF6D110BD10B5034653E8000F00EAC9
:100E4400010243E8002494F0000FF6D110BD10B560
:100E5400034653E8002F02EB010043E8000494F03A
:100E6400000FF6D110BD10B5034653E8002FA2EBD6
:100E7400010043E8000494F0000FF6D110BD0121F5
:100E8400FFF7CDBF0021FFF7D6BF10B590B1D0E971
:100E9400012301689B1ADBB20A60013BDBB2FF2B22
:100EA400026802D10020107110BD11684C1C14603E
:100EB4000B70F2E70E20F7E738B504460020FFF781
:100EC4009FFF226863681168994213D9481E106015
:100ED40011F8013CE568218A01FB0355A3681179E7
:100EE4001B1ADBB2994200D213710020FFF78AFF6C
:100EF400284638BD0025F8E738B5054600200C46DD
:100F0400FFF77EFF2A681368591C1160E968641AA8
:100F1400298AB4FBF1F41C70BDE838400020FFF7C7
:100F240071BF826810B504462AB14369016800693B
:100F340098470023A36010BD0EB403B5039921B1F3
:100F440004AB01AA019300F077F802B05DF804EB5A
:100F540003B070470A2938B504460D4602D10D2165
:100F6400FFF7F8FFA3682268591CA160D554D4E99F
:100F740001329A4204D32046BDE83840FFF7D1BF7E
:100F840038BD00002DE9F84F9846DDE90A431546BF
:100F940082460F460A464FF00109AA420FD2C145C4
:100FA40038BFC14613F0010B01D16CB900240126EE
:100FB400B8F1010F1BD908F1FF386E43F8E709F1C6
:100FC4000109B2FBF5F2E8E79B070ED5B8F1000F73
:100FD4000CBF30262026A145E9D2013C31465046BB
:100FE400FFF7B8FF002CF6D1E0E72026F3E7B7FBC4
:100FF400F6F39D42E1D9DFF83C80B7FBF6F35046A7
:1010040018F8031006FB1377FFF7A4FF3346AB422F
:10101400B6FBF5F6F1D2BBF1000F02D00CB1A1453D
:1010240001D3BDE8F88F20215046013CFFF792FF21
:10103400F4E700BF0D2C00002DE9F74F05461746D5
:101044008846002900F03E8118F8011B49B92B7B22
:10105400002B00F03781284603B0BDE8F04FFFF7BE
:1010640060BF252940F0B780002698F800302D2B6A
:10107400424608F1010823D0302B24D02B2B25D055
:1010840000242A2B02F1010123D13B681A1D1B689D
:101094003A601C440A4613782E2B26D101324FF0B5
:1010A400000A104610F8011BA1F1300CBCF1090F25
:1010B4001DD80A2303FB0A13A3F1300A0246F0E702
:1010C40046F00106D1E746F00206CEE746F00406F4
:1010D400CBE711F8013CA3F130000928DBD80A2240
:1010E40002FB0434303C0A46CBE74FF0000A12F806
:1010F400011B01F0FB0068289046F8D0782909D834
:101104006F290CD8632962D022D8252963D05829A5
:1011140000F0888098F80030002B95D197E770395B
:101124000829F7D801A353F821F000BFA312000047
:1011340019110000191100003912000019110000E2
:1011440017120000191100001911000029120000E3
:10115400642901D06929DDD13A68D2F80090111DC3
:1011640089EAE9723960A2EBE9724FF0010B092AAE
:1011740035DCD34538BFD3462CB1B9F1000F01DBC0
:10118400720700D5013CB30702D5BAF1000F03D0B2
:10119400F00701D44CBB0024B9F1000F2DDAC9F1DA
:1011A40000092D212846FFF7D5FE06F00302022A86
:1011B40004D1BAF1000F01D11CBB0024CDE90046D3
:1011C40053460A2249462846FFF7DCFEA2E73B685D
:1011D4001A1D19783A602846FFF7BCFE9AE70A23DD
:1011E4000BF1010BB2FBF3F2C1E7A345D4D22021EA
:1011F4002846013CFFF7AEFECCE77107D5D52B217D
:10120400D0E7A345DAD230212846013CFFF7A2FEFD
:10121400D2E73968CDE900460A1D3A6053460A22EE
:101224000968D0E739680A1D3A60CDE9004653469B
:101234001022F5E73B681A1D3A6016F00106D3F850
:10124400009024D1B9F1000F03D0484601F0E7FB28
:101254000646B4421DD809F1FF3919F8011F0029C7
:101264003FF458AF2846FFF775FEF6E728460136E7
:10127400FFF770FE19F806100029F7D1A642BFF453
:1012840049AF20212846013CFFF764FEF6E700261B
:10129400F0E720212846013CFFF75CFED9E73B68D4
:1012A4001A1D3A60302128461C68FFF753FE782146
:1012B4002846FFF74FFE00220823CDE900322146DD
:1012C400102280E703B0BDE8F08F00BF2DE9F84F8E
:1012D400B0F806A04579D2F800B09DF828900AFB32
:1012E40005F5043D88460BEB0301A94203F1040410
:1012F40088BFA5EB030BB4FBFAF607460AFB1644BA
:10130400C2F800B04EB9AAEB04055D4528BF5D469E
:10131400BBF1000F04D1BDE8F88F3F68013EF1E74F
:10132400043408EB06003C442A46B9F1000F0DD002
:101334002146ABEB050B01F016FBDA452E443F6862
:1013440055464FF0000428BF5D46E1E701462046BC
:10135400EFE7FFF79ABDF8B546790146721E0546D8
:10136400002393422D6803D30024A64202D8F8BD7B
:101374000133F6E70F682846FFF7BEFD013439460E
:10138400F3E72DE9F843068ACD1C0746FFF794FDE1
:10139400043E35440446B5FBF6F5F0B14FF48073D2
:1013A400EDB28380C680013D076081464FF000089E
:1013B400A84512D23846FFF77FFD064648B1637947
:1013C4000133637108F10108C9F800000760814620
:1013D400EEE72046FFF7BFFF34462046BDE8F8831A
:1013E40001210430FFF733BD10B501210446043058
:1013F400FFF739FDC0B220B92046BDE81040FFF721
:10140400AABF10BD1FB503920022009203AAFFF7E2
:101414005DFF05B05DF804FB1FB503920122009245
:1014240003AAFFF753FF05B05DF804FB83680022AD
:101434005A60C3E904229A60DA601A6070470000B7
:101444001FB503788DF800308388ADF804308368C5
:101454008DF80630C3688DF8073003690293436939
:10146400054A0393054B684653F8213052F821107E
:10147400984705B05DF804FB08060020100600201C
:10148400024B4FF4807043F001031847202C0000F6
:101494001F2886BF054A00F01F004FF0A042012319
:1014A40003FA00F0C2F80805704700BF00030050BB
:1014B4002DE9F047154690F80080394A42F8285043
:1014C400384A42F828304B7B06460C46A3B30868DA
:1014D400DFF8D8904FF0A04100F5E07340F20C62C1
:1014E40041F82320636803F5E073002741F82320C3
:1014F400FFF7CEFF6068FFF7CBFF236803F5E073C7
:1015040040F20D6241F82320636803F5E0734FF065
:10151400010A41F82320FFF7B3FF63681F2B8ABF3A
:101524004A464FF0A04203F01F03D2F8102522FAD6
:1015340003F3DB070BD507BB002D1B4A434608BF4B
:101544002A462146301DBDE8F04700F079B92368EA
:101554001F2B86BF03F01F034A464FF0A0420AFA2E
:1015640003F3C2F80C35FFF78BFF01372068FFF750
:101574008FFFFFF785FF092FCFD163681F2B86BF2D
:101584000A4903F01F034FF0A041012202FA03F3BA
:10159400C1F80C35FFF774FF6068FFF779FFCBE7FC
:1015A4001006002008060020451400000003005027
:1015B4001FB503788DF800304368019383688DF874
:1015C4000830C368054A0393054B684653F8213035
:1015D40052F82110984705B05DF804FB1806002066
:1015E400200600201FB503788DF80030436801936E
:1015F40083688DF80830C368054A0393054B684631
:1016040053F8213052F82110984705B05DF804FBD7
:101614001806002020060020F0B5194B90F800C0F1
:10162400DFF86CE043F82C20164B16460A6943F8A1
:101634002C204B7F0EF80C300C4607460FCC89B09B
:101644006D460FC594E80F0085E80F003B78CDF890
:1016540010C01EF803304BB1002E0B4A694608BF78
:101664003246381D00F0FEFD09B0F0BD002E074AD9
:10167400694608BF324607F10C0000F0D7FBF3E7D8
:101684002006002018060020B5150000E91500000A
:1016940028060020014B1B68184700BF2C060020B9
:1016A40038B50B4B98420C4601D0002038BD0020C1
:1016B400FFF7A6FB074B1D7915B901221C601A71AF
:1016C4000020FFF79FFB002DEFD01120EEE700BFB5
:1016D400002000402C060020034B984201BF034B1E
:1016E40000221A601A717047002000402C06002066
:1016F4000023435082B043580193019B02B07047CA
:10170400F0B54B4D4B4CD5F8243187B0A3B14FF411
:1017140092712846FFF7ECFFD5F8043163B9A3684A
:10172400C5F808330223A360A368C5F80433012372
:101734002B626B6107B0F0BDD5F80431002B48D0A3
:101744003D4F3B484FF48271FFF7D2FF0FCF01AEFC
:101754000FC63B68336094F82E307BB1237B012B9A
:101764000CBFD5F83C25D5F84C250292022B304B02
:101774000CBFD3F83C35D3F84C3503932C484FF4C5
:10178400B071FFF7B5FF4FF4AE71FFF7B1FF94F8F6
:10179400303013B194F82E303BB1254B0022C3F8FE
:1017A4000022A260254AC3F80823214AD2F8C4348F
:1017B400C2F8C4349A0736D501238DF8003094F862
:1017C40030300BB984F82F30D4E90031684698479B
:1017D400B0E717484FF4A471FFF78AFF237B83B95E
:1017E400154F0FCF01AE0FC63B68336094F830300D
:1017F400002BDAD1C5F80032A360104BC5F80833CA
:10180400D3E74FF40073C5F8003240F20223A3601B
:1018140003F1CE73C5F80833A368C5F80433012374
:10182400AB602B6286E713F0040318BF0223C4E7FE
:1018340000300040340600204006002002029C01D3
:101844002DE9F84F06793C4D4FF0340A0AFB06FAAD
:1018540005EB0A079B4697F82D3080460C469146C7
:10186400002B65D135490068FFF71AFF002861D1C4
:101874002168637B87F832301F298CBF01F01F0376
:101884000B4603F5E07388BF2D4AB86098BF4FF04C
:10189400A04240F20C6C87F82F0042F823C0626823
:1018A400C7F804B01F2A8CBF02F01F03134687F841
:1018B400300003F5E07388BF214F45F80A9098BFC4
:1018C4004FF0A04747F823C0D8F80030C3F80815F4
:1018D400C3F80C25A268C3F82425B9F1000F1FD062
:1018E40043F307310029227BB4BF164C01F1604455
:1018F400C3F30733B8BF03F00F074FEA4212A8BF80
:1019040004F56144D2B2B4BFE25584F8002303F075
:101914001F03012202FA03F349090B4A42F821305A
:10192400342303FB0655012385F82D30BDE8F88FD9
:101934000820FBE71120F9E7340600200517000012
:101944000003005014ED00E000E100E003680279B8
:101954000621C3F80015044B342101FB0233022293
:1019640083F82D20704700BF340600202DE9F8438A
:10197400CB6803F06043B3F1005F0D46904603D09B
:1019840010263046BDE8F88390F80490934F04681D
:10199400934BC4F80833342606FB097696F82F30A7
:1019A40023B1B368C4F804331126EAE712F0140F24
:1019B4000CBF0123002386F82F308E46BEE80F00AB
:1019C40006F10C0CACE80F00DEF80030CCF8003067
:1019D400C8F3001386F830306B78C4F888354FF4B8
:1019E40082712046FFF784FE4FF49271FFF780FE68
:1019F40018F0010318BF0123C4F8503518F002038E
:101A040018BF0123C4F840352B78032B00F2C5809E
:101A1400DFE803F087AD68022B6903F06043B3F19C
:101A2400005FADD14FF48073C4F80032EA686B688C
:101A3400C4F844254FF4A871C4F84835FFF758FE9C
:101A44004FF4B071FFF754FE4FF4A471FFF750FE4A
:101A540001232362A360D4F85031002BFBD04FF450
:101A6400A8712046FFF744FEAB682A69C4F84425F0
:101A7400C4F84835342303FB09735A4A9A604FF477
:101A840082710823002618F0080F04D12A78032A4B
:101A94001CBF0122E250342303FB09F3FA18FB585C
:101AA400002B7FD1012221440B68002B00F087809A
:101AB4003422D4F8C434C4F8C43402FB09770022B5
:101AC40087F82F20002B3FF45CAF13F0020F48F28D
:101AD400012608BF032613F0040F48F2022318BF9F
:101AE4001E464EE76B68EA68C4F84425C4F84835D6
:101AF4002B6903F06042B2F1005F7FF441AFAA6842
:101B0400C4F834354FF48453C4F83825C4F800328B
:101B1400342303FB097340F202229A6001232362F7
:101B2400ADE76B68EA68C4F8442518F0200FC4F8E0
:101B340048354FF034030ED04FF4807203FB097321
:101B4400C4F80022274A9A604FF4A471FFF7D0FD2D
:101B54000123236295E74FF4007203FB0973C4F871
:101B6400002240F202229A604FF48271F0E76B681F
:101B7400EA68C4F83425C4F838354FF48053C4F8FF
:101B84000032342303FB097340F202229A600123DA
:101B940023624FF48271002374E74FF482710823A7
:101BA400072670E718F0040F1CBF4FF4007393600E
:101BB400342303FB0977BB68C4F80433E1E6D4F8A3
:101BC4002431002B3FF470AF4FF492712046FFF79D
:101BD4008FFD22624FF48271626164E73406002053
:101BE40002029C0100020400F0B587B004460F46CF
:101BF40015460021142201A81E4600F0DDFE9DF8C2
:101C040030308DF80570002B14BF2022002201A96A
:101C1400204602960495FFF7A9FE07B0F0BDF0B583
:101C240087B004460F4615460021142201A81E461B
:101C340000F0C2FE0123002201A920468DF80430E1
:101C44008DF8057002960495FFF790FE07B0F0BD7D
:101C54000023435082B043580193019B02B0704764
:101C64000A4610B54FF48E71FFF7F2FF136A9168BC
:101C7400C95C136A01331362C0F81C1510BD8B696B
:101C84000A4610B54FF4847123B9FFF7E1FFD0F889
:101C9400183510BDFFF7DCFF536AD168D0F818057A
:101CA400C854536A01335362F3E700001FB501239C
:101CB4008DF80030044BCDE90110D3E900126846D9
:101CC400904705B05DF804FB6806002030B54D4D23
:101CD400D5F804339A0585B051D5D5F82431002BB5
:101CE4004DD04FF492712846FFF7B2FF4FF40173C1
:101CF400C5F80833444B93F829200AB901226A60D5
:101D0400404902228DF80020D1F88024C1F88024B3
:101D140003929A690292DA6801920022C3E90622C8
:101D24006846D3E9001290473648D0F81C315BB1BD
:101D3400354A116A536999424DD292F82830002BE2
:101D440049D11146FFF78CFF2E48D0F84431002BBF
:101D540055D04FF4A271FFF77BFF2B4B93F829204A
:101D64000AB1012202609A69002A48D0586AD968E7
:101D740000229A6105B0BDE83040FFF797BFD5F85F
:101D840004335B07D0D5D5F80831002BCCD01E4CDA
:101D94001C482146FFF773FF636AA2699A42C3D1C4
:101DA400E369E1684BB1A3612369E3600023606ADE
:101DB400E3616362FFF77AFFB6E794F829300BB961
:101DC40001236B600F4B4FF40172C3F80823002307
:101DD400606AA361EEE74FF48E710A48FFF738FF9B
:101DE40051690029B0D00023029191688DF8003028
:101DF400019153616846D2E900139847A4E705B0FE
:101E040030BD00BF00200040680600201F2886BFA8
:101E140000F01F00044B4FF0A04300F5E0700222D5
:101E240043F82020704700BF000300502DE9F84319
:101E3400624D90F804802C2303FB0853064693F864
:101E44002A300C469146002B40F0B4805C4900686F
:101E5400FFF726FC0746002840F0AE802268531C9A
:101E640010D01F2A87BF574902F01F0313464FF0B3
:101E7400A0410120984003F5E073C1F80805032050
:101E840041F823006168481C0DD01F298BBF01F065
:101E94001F030B464B484FF0A04003F5E0734FF08F
:101EA400000C40F823C03068A369C0F8243594F8C6
:101EB40014C0637DBCF1010F4CEA0303C0F86C3518
:101EC400C0F81415C0F80C252BD1A368591C0DD0EB
:101ED4001F2B8BBF03F01F021A463A494FF0A04153
:101EE40002F5E0724FF0000C41F822C0E1684A1C90
:101EF40013D01F2987BF334A01F01F0C8C464FF0C3
:101F0400A0424FF0010E0EFA0CFE0CF5E07CC2F874
:101F140008E54FF0030E42F82CE0C0F80815C0F8AD
:101F240010352C2202FB08F2AB18C3F80490236985
:101F3400AB50B9F1000F2AD04FF48E71247FFFF714
:101F440087FE30684FF4A271FFF782FE32681E4BA1
:101F5400C2F80433130B42F30732002AA8BF02F17C
:101F640060404FEA4411BABF184803F00F0400F56B
:101F74006140C9B2B4BF015580F8001303F01F03D8
:101F8400012101FA03F35209114941F8223033685F
:101F94000422C3F800252C2303FB08530022C3E9C1
:101FA400062283F829205A61012283F82A20384620
:101FB400BDE8F8830827FAE71127F8E76806002048
:101FC400D11C0000000300508000020014ED00E06A
:101FD40000E100E02DE9F04103680579244C00227A
:101FE400C3F800252C2202FB0542014652686AB15F
:101FF400204AC3F8082343F30732C3F304365209D3
:102004000120B04020321C4E46F82200D3F80C05C3
:10201400D3F81485D3F80865D3F810754FF0FF3260
:102024009042C3F81425C3F80C25C3F80825C3F857
:10203400102501D0FFF7EAFEB8F1FF3F02D0404679
:10204400FFF7E4FE7A1C02D03846FFF7DFFE731C6C
:1020540002D03046FFF7DAFE0868FFF73DFB2C2379
:1020640003FB0544002384F82A306360BDE8F08153
:10207400680600208402020000E100E00279044BBB
:102084002C2101FB02335869003818BF0120704726
:10209400680600202DE9F84F064689469246FFF768
:1020A400EDFF044600283DD196F804801F4F2C25EF
:1020B40008FB057B4FF48E71CBF82000CBF814A0FD
:1020C4008BF82800CBF808903068FFF7C1FD306822
:1020D400012383605946FFF7C3FDDBF804305D46F6
:1020E40013BB30682A6A6B699A4211D33368D3F8F8
:1020F4001C21002AFBD00122DA6000202C2303FBE0
:10210400087700237B61BDE8F88F95F828303BB948
:10211400D0F81C31002BF8D05946FFF7A1FDE1E7B8
:102124000F20EBE71120EEE72046ECE768060020DD
:102134000023435082B043580193019B02B070477F
:102144001FB501238DF80030044BCDE90110D3E90C
:1021540000126846904705B05DF804FB9406002021
:102164007FB5364AD2F82461002E46D010464FF48B
:102174009271FFF7DDFF02238DF80030D2F880342E
:10218400C2F880340393D2F83C3502932C4BDA68BE
:1021940001920022C3E906226846D3E9001290475F
:1021A4002648D0F8443173B14FF4A271FFF7C0FF51
:1021B400234B9A693AB10022C3E90622D968D0F8C0
:1021C4003C05FFF7BDFF1D48D0F820319BB14FF40B
:1021D4009071FFF7ADFF1A4B5A6962B1D0F84C15F4
:1021E4000291002299688DF8002001915A61684695
:1021F400D3E90012904704B070BDD2F81031002B1F
:10220400CED04FF488711046FFF792FF0C4BD2F8F2
:102214003C0599698842C3D1DC69D96864B1D2F8B4
:10222400005225F02005C2F800521A699C61DA6058
:10223400DE61FFF785FFB3E79C61FAE70020004009
:10224400940600201F2886BF00F01F00044B4FF0A7
:10225400A04300F5E070022243F82020704700BF3D
:10226400000300502DE9F843664E90F804802423BF
:1022740003FB0863054693F820300C469146002B77
:1022840040F0BC8060490068FFF70AFA074600285E
:1022940040F0B68021684B1C10D01F2987BF5B4AD1
:1022A40001F01F030B464FF0A0420120984003F5B4
:1022B400E073C2F80805032042F823006268501C4A
:1022C4000DD01F2A8BBF02F01F0313464F484FF057
:1022D400A04003F5E0734FF0000C40F823C02868D9
:1022E400A369C0F8243594F814C0637DBCF1010FD0
:1022F4004CEA0303C0F86C35C0F80C15C0F814257B
:102304002BD1A368591C0DD01F2B8BBF03F01F02C8
:102314001A463E494FF0A04102F5E0724FF0000C1E
:1023240041F822C0E1684A1C13D01F2987BF374AED
:1023340001F01F0C8C464FF0A0424FF0010E0EFA34
:102344000CFE0CF5E07CC2F808E54FF0030E42F8F1
:102354002CE0C0F80815C0F81035242202FB08F25E
:10236400B318C3F804902369B350B9F1000F34D003
:102374004FF48871227FFFF7DBFE28684FF49071D9
:10238400FFF7D6FE28684FF49271FFF7D1FE286854
:102394004FF4A271FFF7CCFE2B681D49C3F8041358
:1023A400190B43F30733002BAEBF03F1604001F078
:1023B4000F0418484FEA4212A8BF00F56140D2B298
:1023C400B4BF025580F8002301F01F01012202FA74
:1023D40001F15B09104A42F823102B680822C3F864
:1023E4000025242303FB08660023C6E90633736132
:1023F400012386F820303846BDE8F8830827FAE739
:102404001127F8E79406002065210000000300501E
:102414001003020014ED00E000E100E02DE9F041BA
:1024240003680579244C0022C3F80025242202FB0A
:102434000542014652686AB1204AC3F8082343F3AF
:102444000732C3F3043652090120B04020321C4E37
:1024540046F82200D3F80C05D3F81485D3F80865A0
:10246400D3F810754FF0FF329042C3F80C25C3F82F
:102474001425C3F80825C3F8102501D0FFF7E2FEA0
:10248400B8F1FF3F02D04046FFF7DCFE7A1C02D0D1
:102494003846FFF7D7FE731C02D03046FFF7D2FE52
:1024A4000868FFF719F9242303FB0544002384F883
:1024B40020306360BDE8F081940600201003020020
:1024C40000E100E00279044B242101FB0233586946
:1024D400003818BF012070479406002001F06043C3
:1024E400B3F1005F2DE9F04706468846924635D1A0
:1024F40090F80490FFF7E6FF044688BB1A4F306853
:10250400242505FB09754FF49071C5F814A0C5F88E
:102514000880FFF70DFE4FF4AC713068FFF708FE3A
:1025240033686A69A968C3F84415C3F848250122C9
:102534009A606A68B2B9D3F82021D3F858014AB92D
:102544000028F8D00F20242303FB097700237B61A4
:10255400BDE8F087002818BF0F20F4E71020F7E744
:102564001120F5E72046F3E79406002008B5037828
:102574008BB90379012B0BD1074B08480849C01AC2
:10258400C008084B00041A7840F00300FEF77EFAF6
:10259400054B01221A7008BD842A0000A42A0000F9
:1025A4003A2C0000B8060020B90600201FB501230C
:1025B400ADF80C30002300930F48022303AA4821EE
:1025C400FFF712FB08B1FEF7C5FB0C4C2378002B78
:1025D400FCD000238DF80C302370009306480123AF
:1025E40003AA4821FFF700FB08B1FEF7B3FB2378E9
:1025F400002BFCD004B010BD8C2C0000B9060020C8
:102604001FB51B221A23CDE900234FF0CC710223FE
:10261400CDE90213074A084800236946FEF748FF3C
:1026240008B1FEF797FB0548FFF790F905B05DF890
:1026340004FB00BF71250000882C00008C2C0000D6
:102644000021F8B50846FEF765F808B1FEF782FBED
:10265400FDF79AFF1848194B1949C01AC00800041D
:1026640040F00300FEF70EFAFEF7AEF80028FBD1A7
:10267400FFF7C6FF134C144E144FFFF797FF44F0B7
:1026840001044FF4FA754FF47A40A047013DFAD1A2
:1026940020BF3378002BFBD0002333700C48012378
:1026A4003A464821FFF7BBFA08B1FEF753FBFEF7A1
:1026B4008BF80028FBD1E4E7A42A0000842A000058
:1026C4005B2C0000802C0000B9060020B806002016
:1026D4008C2C00004FF08053D3F83021082A03BF1C
:1026E400D3F83401B0FA80F04009002070470000AC
:1026F40008B54FF080430022C3F80C21C3F8102121
:10270400C3F838254FF0805203F54043D2F804143F
:10271400C3F82015D2F80814C3F82415D2F80C1401
:10272400C3F82815D2F81014C3F82C15D2F81414D1
:10273400C3F83015D2F81814C3F83415D2F81C14A1
:10274400C3F84015D2F82014C3F84415D2F8241461
:10275400C3F84815D2F82814C3F84C15D2F82C1431
:10276400C3F85015D2F83014C3F85415D2F8341401
:10277400C3F86015D2F83814C3F86415D2F83C14C1
:10278400C3F86815D2F84014C3F86C15D2F8442481
:10279400C3F87025FFF79EFF18B13B4B3B4AC3F8C3
:1027A4008C26FFF797FF18B1394BFB22C3F8182585
:1027B400FFF790FF70B14FF080414FF08053D1F894
:1027C400E42ED3F8583222F00F0203F00F03134320
:1027D400C1F8E43EFFF77EFF20B12E4B4FF40072A8
:1027E400C3F840264FF08043D3F80024D20744BFF7
:1027F4006FF00102C3F80024274AD2F8883043F46A
:102804007003C2F88830BFF34F8FBFF36F8F4FF060
:102814001023D3F80022002A03DBD3F80432002B60
:102824002EDA1E4B0122C3F80425D3F80024002A13
:10283400FBD04FF010221221C2F80012D3F800246A
:10284400002AFBD04FF010231222C3F80422134BAA
:10285400D3F80024002AFBD00022C3F80425D3F8BF
:102864000024002AFBD0BFF34F8F0B490C4BCA68DE
:1028740002F4E0621343CB60BFF34F8F00BFFDE768
:10288400084B094A1A6008BD005000404881030003
:1028940000F000400090024000ED00E000E0014044
:1028A4000400FA051C0000200090D0037F2805D8FE
:1028B400034B185C034B5B5C184070470020704767
:1028C400A42C0000242D0000A0F16103192B98BF53
:1028D40020387047A0F14103192B98BF203070476E
:1028E4007F2805D8034B185C034B5B5C184070478A
:1028F40000207047A42C0000242D0000A0F16103E7
:10290400192B98BF20387047A0F14103192B98BFA9
:10291400203070477F299ABF017001206FF02E008C
:1029240070475AB10A787F2A0AD800B102600021A0
:1029340019605960501A18BF012070470020704771
:102944006FF02E007047000008B5034B5B689B686E
:102954001B68984708BD00BF2000002008B5092166
:10296400FFF7F2FF08BD844640EA010313F0030FAA
:1029740018D18446202A0BD32DE9F007B1E8F807D3
:10298400A0E8F807A2F12002202AF7D2BDE8F00758
:10299400042A07D351F8043B40F8043BA2F1040293
:1029A400042AF7D2002A05D011F8013B00F8013BB4
:1029B400013AF9D1604670478446002A2DD010F0C0
:1029C400030F04D000F8011B013A26D0F7E7C9B27F
:1029D40041EA012141EA0141202A12D3A2F1200255
:1029E4002DE9F0030B460C460D460E460F4688466D
:1029F4008946A0E8FA03203AFBD2BDE8F00320326E
:102A04000BD0042A05D340F8041B043A05D0042A49
:102A1400F9D200F8011B013AFBD16046704700F17E
:102A2400010110F0030F11D010F8012B002A23D05C
:102A340010F0030F0AD010F8012B002A1CD010F05C
:102A4400030F03D010F8012B002A15D02DE97000D4
:102A54004FF001324FF0803350F8044BA4EB0205E1
:102A640025EA04051D4000D1F6E7A0F1040070BC7E
:0E2A740010F8012B002AFBD1A0EB01007047E7
:102A8400262C0000000000002A2C0000000000009A
:102A94002F2C000000000000342C00000000000077
:082AA4001E2B000000000303DB
:102AAC00F02A000000000000FC2A000014000020A6
:102ABC007800002040010020480100208000002008
:042ACC0018000000EE
:102AD000FFFFFFFFFFFFFFFFFFFFFFFFFFFFFFFF06
:102AE00000000000000000000000D6010601000008
:102AF000F504000059050000A5040000756172741A
:102B00005F6C6F675F6261636B656E6400426163F7
:102B10006B656E647320666C7573686564006170C4
:102B2000700000006C0500207F000000EC05002014
:102B30001B5B313B33316D0025734C6F6773206431
:102B4000726F70706564202825642925730D0A0052
:102B50001B5B306D002573003C25733E2025733AC6
:102B60002000202530327800202020007C002563C2
:102B7000001B5B313B33306D001B5B313B33326DEF
:102B8000001B5B313B33336D001B5B313B33346DDA
:102B9000001B5B313B33356D001B5B313B33366DC6
:102BA000001B5B313B33376D007761726E696E6776
:102BB00000696E666F00646562756700502B0000E7
:102BC000712B0000302B0000792B0000812B0000BE
:102BD000892B0000912B0000992B0000A12B0000F5
:102BE00000000000FA2B0000A92B0000B12B000010
:102BF000B62B0000466174616C206572726F7200C2
:102C000053797374656D2072657365740030313269
:102C100033343536373839414243444546000000A5
:102C20000338FDD87047505253005457494D005552
:102C30004152540055415254450054656D706572BF
:102C400061747572653A2025642043656C736975FB
:102C50007320646567726565732E000D0A545749C9
:102C60002073656E736F72206578616D706C65207E
:102C7000737461727465642E00000000000000002F
:102C80000338FDD87047000000000000003000400D
:102C9000000000000100000043000000504F5349B5
:102CA00058000000202020202020202020682828F4
:102CB0002828202020202020202020202020202004
:102CC000202020204810101010101010101010108C
:102CD000101010108484848484848484848410106C
:102CE0001010101010818181818181010101010189
:102CF00001010101010101010101010101010110B5
:102D0000101010101082828282828202020202025D
:102D10000202020202020202020202020202021085
:102D2000101010200007032004170201085710405C
:102D300080000000982C00009C2D0000B02E0000A8
:102D400053756E004D6F6E005475650057656400D5
:102D500054687500467269005361740000000000F9
:102D60004A616E00466562004D61720041707200FA
:102D70004D6179004A756E004A756C0041756700B7
:102D8000536570004F6374004E6F760044656300B6
:102D900000000000414D00504D000000D42E000006
:102DA000D02E0000D02E0000D02E0000D02E00002B
:102DB000D02E0000D02E0000D02E0000D02E00001B
:102DC000D02E0000FFFFFFFFFFFFFFFFFFFFFFFF11
:102DD000FFFF0000102E0000402D00004C2E0000D0
:102DE000602D0000942D0000F42D0000A42E0000A2
:102DF000002E0000256D2F25642F2579000000008E
:102E000025612025622025652025542025590000B4
:102E100053756E646179004D6F6E6461790054750D
:102E20006573646179005765646E657364617900E8
:102E300054687572736461790046726964617900DF
:102E40005361747572646179000000004A616E75A7
:102E5000617279004665627275617279004D6172C6
:102E6000636800417072696C004D6179004A756E4B
:102E700065004A756C790041756775737400536518
:102E80007074656D626572004F63746F6265720085
:102E90004E6F76656D62657200446563656D62654F
:102EA0007200000025483A254D3A255300000000E5
:102EB000B1280000CD280000D9280000E528000036
:102EC000012900000D290000192900002729000010
:062ED000000000002E00CE
:102ED800000000000020004000000000002000402A
:102EE8000000000000000000FF0000000090D00378
:102EF800342D0000342D0000342D0000342D000046
:042F0800342D000064
:040000030000037581
:00000001FF
