:020000022000DC
:1060000000000420756302005D6302005F6302000C
:106010006163020063630200656302000000000028
:1060200000000000000000000000000067630200A4
:1060300069630200000000006B6302006D630200F0
:10604000959202006F630200699702004DA302005F
:106050006F6302006F630200B99502006F63020074
:106060006F6302006F6302006F6302006F630200E0
:106070006F630200899802006F6302006F63020081
:106080006F630200C96C02006F6302006F6302005D
:10609000656D02006F630200851B03006F630200E1
:1060A0006F6302006F6302006F6302006F630200A0
:1060B0006F6302006F630200000000000000000038
:1060C0006F6302006F6302006F6302006F63020080
:1060D0006F6302006F6302006F6302006F63020070
:1060E0006F6302006F630200F548030000000000C8
:1060F000000000006F630200000000006F630200F8
:10610000000000000000000000000000000000008F
:10611000000000000000000000000000000000007F
:10612000000000000000000000000000000000006F
:10613000000000000000000000000000000000005F
:10614000000000000000000000000000000000004F
:10615000000000000000000000000000000000003F
:10616000000000000000000000000000000000002F
:10617000000000000000000000000000000000001F
:10618000000000000000000000000000000000000F
:1061900000000000000000000000000000000000FF
:1061A00000000000000000000000000000000000EF
:1061B00000000000000000000000000000000000DF
:1061C00000000000000000000000000000000000CF
:1061D00000000000000000000000000000000000BF
:1061E00000000000000000000000000000000000AF
:1061F000000000000000000000000000000000009F
:10620000354936480A1A02D0072291438D4634494F
:1062100034480A1A06D00722914381F309880222E2
:1062200082F3148830483149314A00F044F831484B
:106230003149324A00F03FF831483249324A00F0E1
:106240003AF832483249334A00F035F83248334997
:10625000334A00F030F833483349344A00F02BF821
:1062600033483449344A00F026F83448344900228F
:1062700000F02CF833483449002200F027F8334866
:106280003349091A082902DB002202604160314AC1
:1062900090471F481F49884205D00268043003B464
:1062A000904703BCF7E700208646EC46002000211B
:1062B000294A9047FEE7884207D0521A05D0037852
:1062C00001300B700131013AF9D17047884202D098
:1062D00002700130FAE770470000042000E003205C
:1062E000000004200000042054DC03009C2B00204C
:1062F000FC2B0020D4630200D4630200008703005B
:1063000054DC03009C2B00209C2B0020D48803002D
:10631000D4880300D4880300D4880300D488030001
:10632000D4880300D4880300D488030054DC03001D
:10633000B4DC0300FC2B0020FC2B0020FC2B0020F5
:10634000986A0020986A0020986A0020986A0020C5
:10635000988A00209D6302000DBD0200FEE7FEE763
:10636000FEE7FEE7FEE7FEE7FEE7FEE7FEE7FEE705
:10637000704700BF1048804710484FF0070188431E
:1063800085460F4880470F48016841F4700101605D
:10639000BFF34F8FBFF36F8FFFF732BF0A480B4930
:1063A0000B4A884207D0521A05D0037801300B708F
:1063B0000131013AF9D170477163020000000420F5
:1063C000EDC0020088ED00E0C0880300882B0020AB
:0463D0009C2B0020E2
:1063D4001F288ABF094B4FF0A04300F01F0003EBB6
:1063E4008000D0F8003723F44033C0F80037D0F8E9
:1063F400003743EA0141C0F800177047000300501A
:10640400022004F08BBA00002DE9F04780460D46C7
:1064140004F0B2FA0328044610D8012D10D0022D3E
:1064240030D05DB91A4800F081FE1A4B04EB4402E7
:1064340013449D78184B1B5DAB4219D0BDE8F0871F
:10644400144E00EB4003F218F55C5378470053B147
:10645400DFF84C900E484A464FF4004100F01EFE0F
:1064640008B989F8008027443E440B4BB2781A558A
:10647400002DE3D0094B1B68002BDFD02846BDE874
:10648400F047184700EB4004024804446578EFE7FE
:10649400202C0020602C0020792C0020742C00205B
:1064A400FC2B002000780221FFF7AEBF08B5094B92
:1064B4001B7853B1002004F0FFF9012004F0FCF92B
:1064C400BDE80840032004F0F7B9BDE8084004F033
:1064D40007BA00BFFD2B0020F8B57A4C2378054697
:1064E4001BB100232370FFF7E1FF172D00F2878013
:1064F400DFE805F00C1717425364757F878C878C8F
:10650400949999999999C3C8D0D8E3E3FFF7CEFF3A
:106514006D4800F00BFE6D4B002204461A702046B5
:10652400F8BD002004F0A0F9F0B1002004F0C4F993
:10653400022D0CBF4FF4E1644FF47A64634B1D7079
:1065440000254FF400464FF4FA7029464FF47A724E
:106554000023E4FB06010BF07DFC2A460146BDE85E
:10656400F840594800F09ABD04F092F9022D0CBF8E
:10657400C8244FF4C874E1E7002004F075F940B171
:10658400002004F099F94FF44874504B03221A7018
:10659400D6E704F07DF9C824F7E7002004F064F995
:1065A40038B1002004F088F94FF47A64474B042290
:1065B400EDE704F06DF94FF4C874F7E7002004F038
:1065C40053F948B1002004F077F9404B05221A70C2
:1065D40041F69A110022C2E704F05AF9F5E70020C7
:1065E40004F09CF9394B06221A70002240F6CD4182
:1065F400B5E7002004F04CF9344B07221A7000244C
:106604008DE70120207004F089F9EEE70120207065
:1066140004F084F900224FF48041A0E704F06FF9FC
:106624002A4B0C22EAE72A482A4E00F07FFDD5F1D6
:10663400110504461CD0D8B9012D13D0C8204543F8
:1066440021464FF400474FF4FA704FF47A72002356
:10665400C5FB07010BF0FEFB224601461C4800F077
:106664001DFD0446022004F013F90123337056E79C
:10667400022004F021F90023F8E7FFF717FF134B7A
:106684001222BBE7FFF712FF002004F001F90F4BC1
:106694001322B3E7FFF70AFF012004F0F9F80B4BCC
:1066A4001422ABE7FFF702FF002004F0F1F8012009
:1066B40004F0EEF8054B1522A0E704F020F9034B93
:1066C4001D709CE7702C0020402C0020782C0020AA
:1066D400002C0020FD2B0020044B1B68DB0703D596
:1066E400034B1878FFF7F8BE704700BF6C2C0020EE
:1066F400782C0020032801D804F02AB90020704720
:10670400044B1B6813F0010301D0FFF7E5BE1846E4
:10671400704700BF6C2C002038B51C4B18601C4B14
:1067240010F00204054619601AD01A4B1A480E22BA
:106734001A700F22DA7010229A7111225A720421EF
:1067440040F2666200F0A6F9044648B900F0F8F990
:10675400044628B90146114A114800F08DFC04464C
:10676400EB0711D5012004F01FF96CB921460D4A3D
:106774000D4800F081FC044630B9BDE838400B4AAE
:106784000B48012100F078BC204638BD6C2C002059
:10679400742C0020602C0020D4880300A96402001B
:1067A400F8880300DD660200FC880300056402002B
:1067B400F4880300032811D8012A0AD101290FD132
:1067C40000F10E02D2B20D4B00EB40001A5400202F
:1067D40070470129F7D0022904D049B10720704736
:1067E4000022F8E7054B00EB400018444270EEE746
:1067F400024B00EB400018448270E8E7602C002054
:10680400032808B506D804F0C9F80321FFF7E0FD12
:10681400002008BD0620FCE708B501220221002063
:10682400FFF7C8FF08B1072810D107220221012071
:10683400FFF7C0FF08B1072808D100210A22084643
:10684400FFF7B8FF10B1072808BF002008BD0000FB
:106854000388102B10B502D0112B1ED010BD1A4C7A
:106864002168B1B901220846FFF7A4FF08B107283F
:1068740024D1072202210120FFF79CFF08B1072839
:106884001CD1042202210020FFF794FF08B107283D
:1068940014D1236801332360E0E70B4A1368013BFA
:1068A4001360002BDAD1FFF7B7FF0028D6D0074BCF
:1068B4001B68002BD2D0BDE810401847034B1B685F
:1068C400002BE6D09847E4E7842C0020802C00209D
:1068D40008B50020FFF794FF08B1062806D101206F
:1068E400FFF78EFF10B1062808BF002008BD000086
:1068F4000D4B10B518600C4629B10120FFF7FAFEC4
:1069040040B102232370094B1B6853B9BDE8104002
:10691400FFF782BFFFF7EEFE08B10B23F2E720700A
:10692400F1E7002010BD00BF802C0020842C002043
:106934002DE9F84F2F4F304E4FF000082F4B1B78A6
:106944005FFA88F5AB4201D8BDE8F88FD7F800901C
:1069540019F835000124A0F12002C0F1200304FA43
:1069640002F224FA03F31343D6E9001204FA00FCFA
:1069740001EA0C0B02EA030E5BEA0E0E09EBC50AF0
:1069840035D021EA0C0122EA0303C6E9001302F020
:1069940003FE024619F83500194DA0F12003C0F199
:1069A400200124FA01F104FA03F30B43D5E900C1F1
:1069B400C0F120050B40A0F1200122FA05F5844026
:1069C40002FA01F1294304EA0C0402FA00F58B42AD
:1069D40008BFAC420BD1DAF8043043B19AF8011085
:1069E4004C1E614261418D1A69426941984708F120
:1069F4000108A3E7C02C0020B82C0020882C00201C
:106A0400B02C0020F8B507461E4800F08FFBB8BB39
:106A140001251D4EA7F12004C7F1200325FA03F335
:106A240005FA04F41C43D6E90023BD4002EA05003C
:106A340003EA040101431DD1384602F0ADFD134BB6
:106A4400D3E9001288B129432243C3E90012D6E9ED
:106A540000232A432343C6E900230D4B0948196840
:106A64000022BDE8F84000F019BB21EA050122EA42
:106A74000402EAE722EA050223EA0403C6E9002342
:106A8400F8BD00BF902C0020B82C0020B02C0020B2
:106A94008C2C0020042A2DE9F34105460C461646A9
:106AA4003BD902F0A1FCE8B11D4B1E491D601E4BF1
:106AB400DFF888801C701D4B00221E600023C1E992
:106AC40000231B49C1E90023013CE4B2002603274B
:106AD400FF2C0ED1174A1848002102B0BDE8F0413E
:106AE40000F0CABA02F04EFC0028DDD002B0BDE8C6
:106AF400F08105EBC40315F834009B788DF806602B
:106B0400424601A98DF804708DF8053002F076FC38
:106B1400013CE4B20028DBD0E8E70720E6E700BF49
:106B2400C02C0020B02C0020882C00208C2C0020AD
:106B3400B82C00203569020000890300096A0200AC
:106B440070B5084D084E00242B789C4201D30020D8
:106B540070BD3368012113F8340002F0CFFC013416
:106B6400F2E700BF882C0020C02C00201FB50021B4
:106B7400039001AA44F20100CDE9011100F004F8E8
:106B840005B05DF804FB000038B572B604F0F2FA03
:106B940004F02AF90028FBD1104B114C114D124975
:106BA400E41AE408240444F0010004F07FFAD5F860
:106BB400F030DB0700D500BE0C4944F0020004F0BD
:106BC40075FABFF34F8FEA68094B02F4E06213438E
:106BD400EB60BFF34F8F00BFFDE700BFC887030022
:106BE4000088030000ED00E004890300108903001D
:106BF4000400FA05094B5A7899780132D2B29142CD
:106C040008BF0022197891421FBF027058781822D9
:106C140002FB003014BF043000207047C42C002055
:106C240073B5054600240DF107000E468DF80740A4
:106C340000F096FA0DF10600FFF7DCFF90B1067044
:106C4400094B9DF8062045605A709DF8070000F036
:106C5400ABFA24B9054B4FF48012C3F80021204647
:106C640002B070BD0424F0E7C42C002000E100E071
:106C7400024B4FF43C6043F00103184720890300A2
:106C840038B50C4B0C4C4FF40032C3F8802001256E
:106C94004FF48033C4F84833C4F808336560FFF711
:106CA400E7FF064BA56000241C60FFF7E1FF044BDF
:106CB4001C7038BD00E100E000100140E02D002010
:106CC400D12D0020F8B51F4B1F491B680025C1F8C2
:106CD4004051C1F84451C1F84851C1F84C51C1F870
:106CE4000051C1F804514BB3D1F804451749096860
:106CF400641A24F07F442F461A68A24209D8A41AC1
:106D040015441A7CDE691AB1D3E905201F74904733
:106D1400AEB90F4A0F4B11781B788B4205D1013362
:106D2400DBB2022B08BF0023137012780A4B43F81E
:106D340022500A4B4FF48012C3F80021F8BD3346A9
:106D4400DAE700BFE42D002000100140E02D002010
:106D5400DD2D0020DC2D0020D42D002000E100E0FA
:106D64002DE9F04FA14AA24913780978A14D99421F
:106D740085B03CD00133DBB2022B08BF0023137073
:106D84009D4912789D4B0F6853F822003B1823F05D
:106D94007F4300220B602B6816461446944613B9B1
:106DA40042B12B6006E0196881420ED902B12B6012
:106DB400091A196001272B68DFF848A201934FF0E4
:106DC4000008BEB9DFF844B260E0401A0C44D96848
:106DD400D3F81CE0C3F800C031B13A1922F07F4265
:106DE400C3E90121DE611E4673460122D7E700266E
:106DF4003746E0E73446F6697F4B60681B68DFF886
:106E040010C2A168C21A22F07F42624500F2A68035
:106E14000A442260012222742A680023C4E901334F
:106E2400E361002A40F0A3802C60CAE79BF80210BB
:106E34005A1CD2B291428BF8002004BF00228BF876
:106E44000020182202FB03B32A6819799C680229DE
:106E540075D003297FD0012918D1207CB0B9D3E99A
:106E64000312A2605A69E2609A69654BA2611A78BA
:106E7400002A18BF01466160BEE78C4200F094808E
:106E84008946C9690029F8D1002323749BF800308E
:106E94009BF801209A42C9D12B68B8F1000F04D1A4
:106EA400019A9A4201D1002F43D0002B79D0D3F814
:106EB40000A0544D504BD5F804751C68DFF854817C
:106EC4003E1B98F8003026F07F4603369BB94FF4FA
:106ED4008033C5F84433C5F804334B4B4FF40032C8
:106EE4004FF00109C3F880211A60C5F80090FFF73C
:106EF400BFFE88F80090B2452CBF5444A41924F076
:106F04007F44C5F84045D5F80435DB1B23F07F43A7
:106F1400E41B033324F07F44A3420AD9D5F8043593
:106F2400C5F84035FFF7A4FE374B4FF40032C3F8E1
:106F34000021334B00221A7005B0BDE8F08F1146D2
:106F440091469FE71174D2690123002AFAD1002BDC
:106F54009CD02A609AE700231946F6E71B1A23F00F
:106F64007F438B4234BFCB1A0023236052E721684E
:106F74001368994213D85B1A1360E26154E7091A43
:106F8400D8691A4638B1034618688842F7D3401ABC
:106F94001860184613462160E061DC6111E713466E
:106FA400F2E7FFF76DFEC4E74C4511D1D3692B60BE
:106FB40073B9DFF844E00120CDE90212CAF80800F1
:106FC400CEF800300E4B1870FFF752FEDDE90212C6
:106FD4000B68C969C9F81C1011B1086803440B6037
:106FE4002B68934218BF4FF001084DE7DC2D0020B9
:106FF400DD2D0020E42D0020E02D0020D42D0020E4
:10700400D02D00200010014000E100E0C42C00203D
:10701400FEFF7F00D12D002008B5FFF731FE104B95
:1070240000200B2218809A700E4B18600E4B1870BB
:107034000E4B18700E4B4FF48012C021C3F8802100
:1070440083F814131A6002F18042A2F56F22C2F889
:10705400080583F81113074BD2F804251A6008BDFC
:10706400C42C0020E42D0020DC2D0020DD2D002088
:1070740000E100E0E02D0020074B9B784BB132B1DA
:1070840028B10368187C20B959745A6170470720E5
:1070940070470820704700BFC42C00202DE9F74337
:1070A400DFF8848098F8023005460E461746ABB3E5
:1070B400A0B3042930D9436983B3437C0024012B52
:1070C4000DF107000CBF8946A1468DF8074000F07A
:1070D40047F80DF10600FFF78DFDD8B101230370C9
:1070E4000F4B4560D3F80435C0E90497C0E9023674
:1070F4009DF8063088F801309DF8070000F054F838
:1071040024B9084B4FF48012C3F80021204603B081
:10711400BDE8F0830424EFE70724F7E70824F5E744
:107124000010014000E100E0C42C0020064A9278DF
:107134003AB130B1426922B1002202740221FFF750
:107144006FBD0820704700BFC42C0020014BD3F84A
:107154000405704700100140401A20F07F4070473A
:1071640070B5EFF3108672B60C4A946801239CB98B
:1071740093600B4B0B4DD3F8801029401160C3F87A
:107184008050D3F8841051604FF0FF32C3F884204C
:10719400047006B962B670BD0370FAE7E82D0020EA
:1071A40000E100E0FC06FFBD084B9A6810B55AB137
:1071B40050B9EFF3108172B6054A1C6814605C681C
:1071C4005460986001B962B610BD00BFE82D00207C
:1071D40000E100E070B5064D0646002455F8043B76
:1071E4000BB1304698470134042CF7D170BD00BF71
:1071F400002E00204388033300EB8303994209D314
:1072040082884FF6FF739A4206D00088B0FA80F065
:10721400400970470220704701207047033080B254
:1072240040F2FD33984230B51FD8124B1A783AB960
:107234001C895D892C440444A4B2B4F5806F0AD33C
:107244001A7DA2B99A8BDC8B2244024492B2B2F525
:10725400806F0CD201220A801446142202FB0433EC
:107264005A8910445881002030BD0920FCE70720CA
:10727400FAE700BF342E00200B4A0C49538814202F
:1072840000FB0311CB6833B9042049681070012254
:10729400074801F0BDBA07490523137002238B8008
:1072A400012209680023F3E7182E0020342E002061
:1072B400882B0020FC2E002007B5002305490093ED
:1072C400054A09680548082301F008FA03B05DF887
:1072D40004FB00BFFC2E002034890300882B00200F
:1072E40007B5002301460093034A0448082301F02C
:1072F400F5F903B05DF804FB2C890300882B00200A
:1073040013B500230C4600930146084A0848042399
:1073140001F0E4F938B9074B142101FB04310123CE
:107324000B7402B010BD0E20FBE700BF28890300D8
:10733400882B0020342E002037B50A480A4B4268B7
:107344009C88196853880325033305709BB2002079
:1073540000909B0001EB8401044801F0BFF903B0E5
:1073640030BD00BF182E0020FC2E0020882B0020EA
:1073740010B50146044800F021FE1C2204460021F9
:107384000AF0AAFE204610BDE82E002068B102686B
:10739400084B9A4209D14068074B984207D0013301
:1073A400984214BF03200120704703207047002037
:1073B400704700BFDEC0ADDEFE011EF12DE9F041D5
:1073C4000D460223154F2B80164600F5805100F11F
:1073D40008044FF001088C420ED2236801330BD00D
:1073E4002046FFF707FF48B10EB186F80080022857
:1073F40009D14FF480632B80BDE8F081A3683A681B
:10740400934200D93B602B886288033313442B805A
:107414006388033304EB8304DDE700BF2C2E0020D4
:1074240038B5144B14220D4602FB00302B68446817
:1074340004F58051A3B15C88033403EB84048C42CB
:1074440015D22368013312D02046FFF7D3FE01285A
:1074540008D002280BD00028F1D12C60012038BDBF
:107464000834ECE76388033304EB8304E7E7002084
:10747400F5E700BF342E0020426873B504460D467C
:1074840062B3234BD9688A4228D31B699A4225D810
:1074940012F0030322D11F490089098988421DD1B2
:1074A40020689168884219D11B4841688A4203D9EF
:1074B40001F580518A420DD381698A420CD901F5C4
:1074C40080518A4208D201222A80B3FA83F040090B
:1074D40002B070BD1A46F7E70A23F6E700262E80AD
:1074E4000196288801A9FFF79BFF30B92B88013347
:1074F4009BB2012B2B80F3D9EAE7019B22689968A0
:107504009142EED16360034B1B892381E0E700BF06
:10751400882B0020182E0020342E00202DE9F8435B
:107524001C461C4B1B7806460F4615466BB372B3BC
:107534006CB3DFF868804FF01409A388012B01D9DC
:107544000A2020E009FB03F318F803302BB9A088C4
:107554002146FFF765FF20B92060A3880133A3808B
:10756400EBE723681EB1998832889142EFD11FB1AD
:1075740019883A889142EAD19A68C5E90023064BF2
:107584001B892B810020BDE8F8830220FBE705203E
:10759400F9E700BF102E0020182E0020342E002002
:1075A40008B5074B5888191DFFF73AFF18B1BDE815
:1075B4000840FFF7C1BEBDE80840FFF75DBE00BF4D
:1075C400182E00202DE9F0479F4FDFF8A08288B0E5
:1075D40006463B6823B99D48414600F029FD3860C2
:1075E4003D6829784B1E052B07D8DFE813F01F00F0
:1075F40077007700070107015B010F2414220021A3
:1076040003A80AF069FD41F61D539C4208BF0024FB
:107614003B6804941A78023A042A00F2F981DFE8FC
:1076240012F0DA01E60108021002170226B1884BB3
:1076340000225A600124E1E72B79032B1CD8DFE8F0
:1076440003F014022934834A1378022B19D0137DD2
:10765400022B4FF0010316D114214B43D118002003
:10766400D0544868FFF73CFE03E001232B71FFF779
:1076740023FE002800F0BD80754B00225A600E24C2
:10768400BCE70023E8E7724A13700023536041F615
:107694001D54B3E770497148002302222B718A807C
:1076A4000968012201F0B4F8E3E76B4C00262E715F
:1076B4002068FFF715FE6A4BDFF898C15B882568E0
:1076C400142253430CEB03020CF803605168556019
:1076D400A588158102222160A280CAE7B5F814A00A
:1076E400AA7DDFF87091AEB1022AEB8806D9142185
:1076F40001FB0A91DA1C088902440A81142202FB64
:107704000A99C3F57F43B9F80A20FD331344A9F855
:107714000A308FE7142303FB0A9318895C6804EB8F
:107724008004062A68D8DFE802F0274D35431D5946
:10773400040041F61D54AA7DEB88022A06D91421BF
:1077440001FB0A91DA1C088902440A81142202FB13
:107754000A99C3F57F43B9F80A20FD331344A9F805
:107764000A304BE73F48404900234360AB6903605C
:10777400FFF782FE002859D00223AB750023009343
:107784000423EA182146354800F0A8FF002830D029
:107794000E24D0E72B69002B14BF03230123AB7500
:1077A4000023009305F10C02042304F10801EAE725
:1077B4000123AB750022EB8800922A699B0004F137
:1077C4000C01E0E703290CBF05230623AB75002356
:1077D4000093042305F10802E118D4E70623AB75EE
:1077E400214B19881F4B5868FFF78AFD044600286F
:1077F400A1D108B0BDE8F0870F249CE7002E7FF4E8
:1078040019AF2B79012B33D0022B3FF440AF002B5F
:107814007FF4F3AE02232B710DF10A01EB6803939D
:1078240003A8CDE90466FFF727FE08B90A24E5E6B4
:107834000498BDF80A108388EB8003882B81FFF736
:107844005FFD044627E000BF302E0020E82E002014
:10785400102E0020342E0020FC2E0020882B002027
:10786400182E0020F42D0020082F0020282E0020A0
:10787400DFF8F89103AA4B463146A81DFFF74EFEE8
:10788400044660B9B9F804100498FFF739FD0446BA
:107894000A2C3FF4FCAE002C7FF4B0AEA9E7C9E992
:1078A4000066F5E7002E7FF4C5AE6B4B1A7BBAB1C8
:1078B4001E731A78013A062A3FF69FAE01A151F8C9
:1078C40022F000BF6F79020095790200B3790200BB
:1078D400B9790200FF750200BF790200D179020074
:1078E4001A78072AE5D801A151F822F0117902008B
:1078F400B7780200B7780200377902004B790200AA
:107904006B7902006B790200337902001A895349BA
:1079140001321A8100225A801A730A78B2FA82F26A
:1079240052099A720A7DB2FA82F25209DA7201227B
:1079340007E04B4958688A884088033202448A80A9
:1079440002221A70B5E75C88444A4549142505FBB0
:1079540004220868546850608888108102228A8052
:107964000C600622EDE70722EBE79A7A32B9DA7A5D
:107974008AB900221A705A805A6088E63749002270
:107984009A72CA68002AF2D1097C0029EFD05A8081
:10799400FFF706FE55E70022DA72304A116A002921
:1079A400E7D192F82420002AE3D00122EFE7FFF781
:1079B400C3FC46E7FFF760FC43E75A88274B1421D2
:1079C40001FB02335868FFF78BFC3AE700225A6048
:1079D400FFF772FC35E701228DF80C201A89ADF807
:1079E40018209A88DB68ADF81A20059310E002226B
:1079F4008DF80C201A89ADF818209A88ADF81A2051
:107A0400DA689B7D05929A1F534253418DF81C30CE
:107A140003A8FFF7DFFB0026414612483E6000F052
:107A240032FB1148012100F0E8FB00287FF4D1ADBE
:107A3400DFE603228DF80C20DA88ADF818201A89C5
:107A4400D0E704228DF80C20DB88ADF81830DFE78E
:107A540005238DF80C30DBE7182E0020342E00208F
:107A6400FC2E0020E82E0020F82E00200C2F0020F1
:107A74004068FFF7A7BD000008B50548012100F0E4
:107A8400A4FB18B9BDE80840FFF79CBD08BD00BFC2
:107A9400F82E00202DE9F3419846354B1B78064615
:107AA4000D46002B5BD000295BD009884FF6FF738D
:107AB400994258D06B88002B55D06B689B0754D1E2
:107AC4004AB92F890DF102013846FFF7A7FB30B1FF
:107AD40002B0BDE8F08113885788ADF8023001A8E0
:107AE400FFF746FC044658B9BDF80220214B142187
:107AF40001FB023358890338C01B58810820E7E78B
:107B040080F8008000238375BDF8023083826B689F
:107B140003610121184800F064FB2B882381B8F12C
:107B2400030F6B88A38004BF0423A3754FF00005E3
:107B340008BF3368E06008BFA3611048E78065812F
:107B440001A900F065FA36B1E36833600C4B756047
:107B54001B89B5723381FFF78FFF0020B8E702203D
:107B6400B6E70520B4E70420B2E70320B0E700BF7E
:107B7400102E0020342E00202C2E0020E82E002071
:107B8400182E002008B5034607480268042A08D0C6
:107B94000168064A42F82130012100F022FB00204E
:107BA40008BD0C20FCE700BF042F0020002E00209D
:107BB4002DE9F04F89B01422002103A80AF08CFAB1
:107BC400754B1B7803F0FF0200923BB103A8FFF74B
:107BD40001FB0026304609B0BDE8F08F6E4B181D3E
:107BE40000F017FB0028F4D1009BDFF8C4B1D3F8F0
:107BF400F83F5C1C08BF4FF010234FF0805208BFC1
:107C04005B6911695269581C08BF02FB01F3CBF888
:107C140010306249A3F5405300225846CBF80C308B
:107C240000F02AFD06460028D4D11C235C495D4897
:107C3400DFF880A1DFF880818C2200F08AF9032329
:107C4400B146354601933446DBF80C704F44384650
:107C5400FFF79CFB012839464AD0032815D0002899
:107C640035D11421614308EB010208F80100576083
:107C740001F110020831424441443846FFF79EFBAB
:107C840045F002050134A4B221E007F580520868EA
:107C9400013074D104319142F9D1DAF800203AB9B3
:107CA40002220123CAF80070AAF8042000930CE011
:107CB40014226243022008EB020108F802003A4A47
:107CC4004F60548001340881A4B245F0010509F5E0
:107CD4008059B9F5405FB7D1019B012B98BF0025AE
:107CE400EDB2022D02D0062D20D045BB0B2671E744
:107CF400009B63B11422624308EB0201022008F8DE
:107D040002000134DAF800204A600881A4B200229B
:107D14002649CAF800703846FFF750FBBAF8042029
:107D2400022A0CBF042208221543D0E71A4A012371
:107D3400137003A800235360FFF74CFA4AE702A824
:107D4400FFF716FBC8B10123013D03700A2D09D8C2
:107D5400DFE805F006080608070807080F110F00FA
:107D64000023037102A90F4800F052F9FFF784FEC3
:107D740030E70323F5E70223F3E708262AE7019B0C
:107D84005A1E93B21422624308EB020101934F601E
:107D9400032108F8021075E7102E0020308B030031
:107DA4005C2E0020E82E0020182E0020002F00203A
:107DB400882B0020FC2E0020342E002073B50D46A5
:107DC4000446C8B1C1B10DF10601FFF755FBA8B1D6
:107DD400BDF806300A486668142202FB030001213C
:107DE4000C3000F0FEF963682E600C336B600123E5
:107DF400A372002002B070BD0520FBE70A20F9E75A
:107E0400342E002013B50446A8B10DF10601FFF786
:107E140033FB90B1BDF806200A4B142101FB023359
:107E2400DA6862B1A27A52B1DA680020013ADA6003
:107E3400A07202B010BD0520FBE70A20F9E7062076
:107E4400F7E700BF342E002002230022FFF722BEF2
:107E540018B103230022FFF71DBE05207047000060
:107E6400104B1B7813B50446ABB14FF6FF73984221
:107E740013D001A8FFF77CFA88B10523037001230E
:107E84000371C48001A9084800F0C2F8FFF7F4FDAB
:107E9400002002B010BD0220FBE70420F9E708200F
:107EA400F7E700BF102E0020E82E00200E4B1B78B1
:107EB40007B5A3B101A8FFF75BFA90B106230370DD
:107EC40001A90A4800F0A4F8094B1A780AB1012262
:107ED4001A73FFF7D1FD002003B05DF804FB022004
:107EE400FAE70820F8E700BF102E0020E82E002053
:107EF400182E002007B5ADF80600ADF804100DF1FA
:107F0400060001A9FFF70AFB03B05DF804FB07B5FF
:107F14001346ADF806000A4600200DF10601FFF7EE
:107F2400FDFA03B05DF804FB07B51346ADF806008F
:107F34000A460DF106000021FFF7F0FA03B05DF8E0
:107F440004FB20B119B103680B60002070470520C1
:107F5400704710B561B1B2FBF3F403FB1424A4B26F
:107F640044B9C0E9001484608281C381204610BDF5
:107F74000E20FCE70920FAE782B050E8022FC188FE
:107F8400B2EB324F4FF0000317BF92B241EA014106
:107F940042EA014104E04268B2EB324F08BF0123D8
:107FA40040E80212002AE8D18DF807309DF8073026
:107FB400002B0CBF1120002002B0704737B550E8E9
:107FC400013F9DB2C48925448489A54228BF2D1B45
:107FD4000489A54202BFBFF32F8F002207E0C5EA40
:107FE400030540E80154002CE9D14FF001028DF85B
:107FF40003200193019A0A609DF8031001F0FF0326
:1080040021B1006810FA82F003B030BD1846FBE7D6
:108014000A884B889A4209D150E8012FC2EA0242E9
:1080240040E80123002BF7D101207047002070475E
:1080340037B550E8023F1FFAA3F5C488A54202BF32
:10804400BFF32F8F00220DE0C48925448489A54203
:1080540028BF2D1BC3EA054540E80254002CE8D193
:108064004FF001028DF803200193019A0A609DF8F4
:10807400031001F0FF0321B1006800EB124003B0CC
:1080840030BD1846FBE70A884B889A4209D150E86C
:10809400022FC2EA224240E80223002BF7D101203A
:1080A40070470020704701F01F024B0901219140E5
:1080B40000EB830000F065B84B0910B501F01F0414
:1080C4000121A14000EB830000F04FF8E04000F0F4
:1080D400010010BD01F01F0301229A404B0900EB7F
:1080E4008300D14300F065B84B0901F01F0150F83B
:1080F4002300C84000F0010070472DE9F0474F1EEF
:108104007F0980460E460137002558F8254008EBC4
:108114008509E44394FAA4F4B4FA84F44FEA451AC2
:10812400202C06D10135AF42EFD834462046BDE8B5
:10813400F0875444A642F5D921464046FFF7BCFFD8
:108144000028F3D0D9F80040E44394FAA4F4B4FA34
:1081540084F4E5E710B5034653E8000F0A4643E804
:10816400002494F0000FF7D110BD10B5034653E876
:10817400000F40EA010243E8002494F0000FF6D116
:1081840010BD10B5034653E8002F42EA010043E84E
:10819400000494F0000FF6D110BD10B5034653E867
:1081A400000F00EA010243E8002494F0000FF6D126
:1081B40010BD10B5034653E8002F02EA010043E85E
:1081C400000494F0000FF6D110BD10B5034653E837
:1081D400000F00EB010243E8002494F0000FF6D1F5
:1081E40010BD10B5034653E8002F02EB010043E82D
:1081F400000494F0000FF6D110BD10B5034653E807
:10820400002FA2EB010043E8000494F0000FF6D124
:1082140010BD0121FFF7A9BF0121FFF7B2BF002163
:10822400FFF7BBBF10B590B1D0E9012301689B1AD9
:10823400DBB20A60013BDBB2FF2B026802D10020F3
:10824400107110BD11684C1C14600B70F2E70E2005
:10825400F7E737B5054600240DF107008DF8074010
:10826400FEF77EFF2A686B68116899420ED9481E92
:10827400106011F8013CEC68298A01FB0344AB68E7
:1082840011791B1ADBB2994238BF13719DF80700AC
:10829400FEF78AFF204603B030BD37B505460023FC
:1082A4000DF107000C468DF80730FEF759FF2A68D8
:1082B4001368591C1160E968641A298AB4FBF1F443
:1082C4001C709DF80700FEF76FFF03B030BD826895
:1082D40010B504462AB14369016800699847002330
:1082E400A36010BD0EB403B5039921B104AB01AA78
:1082F400019300F077F802B05DF804EB03B0704727
:108304000A2938B504460D4602D10D21FFF7F8FFBE
:10831400A3682268591CA160D554D4E901329A4259
:1083240004D32046BDE83840FFF7D1BF38BD000074
:108334002DE9F84F9846DDE90A43154682460F4673
:108344000A464FF00109AA420FD2C14538BFC146BF
:1083540013F0010B01D16CB900240126B8F1010F0F
:108364001BD908F1FF386E43F8E709F10109B2FBA4
:10837400F5F2E8E79B070ED5B8F1000F0CBF3026E5
:108384002026A145E9D2013C31465046FFF7B8FF0B
:10839400002CF6D1E0E72026F3E7B7FBF6F39D4285
:1083A400E1D9DFF83C80B7FBF6F3504618F8031028
:1083B40006FB1377FFF7A4FF3346AB42B6FBF5F693
:1083C400F1D2BBF1000F02D00CB1A14501D3BDE83D
:1083D400F88F20215046013CFFF792FFF4E700BFDD
:1083E400458903002DE9F74F0546174688460029BD
:1083F40000F03E8118F8011B49B92B7B002B00F0DB
:108404003781284603B0BDE8F04FFFF760BF252948
:1084140040F0B780002698F800302D2B424608F132
:10842400010823D0302B24D02B2B25D000242A2B39
:1084340002F1010123D13B681A1D1B683A601C44F8
:108444000A4613782E2B26D101324FF0000A10462B
:1084540010F8011BA1F1300CBCF1090F1DD80A233F
:1084640003FB0A13A3F1300A0246F0E746F00106C3
:10847400D1E746F00206CEE746F00406CBE711F852
:10848400013CA3F130000928DBD80A2202FB0434A2
:10849400303C0A46CBE74FF0000A12F8011B01F00A
:1084A400FB0068289046F8D0782909D86F290CD8A1
:1084B400632962D022D8252963D0582900F0888006
:1084C40098F80030002B95D197E770390829F7D830
:1084D40001A353F821F000BF4F860200C5840200B7
:1084E400C5840200E5850200C5840200C38502003C
:1084F400C5840200C5840200D5850200642901D028
:108504006929DDD13A68D2F80090111D89EAE9722F
:108514003960A2EBE9724FF0010B092A35DCD3452F
:1085240038BFD3462CB1B9F1000F01DB720700D577
:10853400013CB30702D5BAF1000F03D0F00701D410
:108544004CBB0024B9F1000F2DDAC9F100092D212B
:108554002846FFF7D5FE06F00302022A04D1BAF139
:10856400000F01D11CBB0024CDE9004653460A226A
:1085740049462846FFF7DCFEA2E73B681A1D197836
:108584003A602846FFF7BCFE9AE70A230BF1010B79
:10859400B2FBF3F2C1E7A345D4D220212846013C23
:1085A400FFF7AEFECCE77107D5D52B21D0E7A34565
:1085B400DAD230212846013CFFF7A2FED2E739681F
:1085C400CDE900460A1D3A6053460A220968D0E7FD
:1085D40039680A1D3A60CDE9004653461022F5E792
:1085E4003B681A1D3A6016F00106D3F8009024D1B6
:1085F400B9F1000F03D0484609F0A1FD0646B44284
:108604001DD809F1FF3919F8011F00293FF458AFAB
:108614002846FFF775FEF6E728460136FFF770FE99
:1086240019F806100029F7D1A642BFF449AF20215A
:108634002846013CFFF764FEF6E70026F0E7202118
:108644002846013CFFF75CFED9E73B681A1D3A60F7
:10865400302128461C68FFF753FE78212846FFF78F
:108664004FFE00220823CDE900322146102280E784
:1086740003B0BDE8F08F00BF13B50B46114680B9B7
:10868400104B1148114AC01A0E23C0080093104B16
:108694000004104940F0010002F01FFD0E2002B05A
:1086A40010BD4BB9074B08480B4AC01AC0080E232B
:1086B40000930004064BECE703601B6802B0BDE8BE
:1086C40010401847C8870300308803005589030009
:1086D400118B03005A890300898903002DE9F743AC
:1086E400DDF8288088B93E4B3E483F4AC01AC0088E
:1086F4000E243E4B009400043D4940F0010002F07A
:10870400ECFC204603B0BDE8F0834AB9344B35484D
:10871400384AC01AC0080E24344B00940004EBE716
:10872400D0F800E0BEF1000F09D12D4B2D48324A9C
:10873400C01AC00808242D4B00940004DCE74BB990
:10874400274B28482D4AC01AC0080924274B0094F7
:108754000004D1E74568D5F80490B3FBF9F509FBAB
:1087640015354DB11E4B1F48254AC01AC0080924AF
:108774001E4B00940004BFE78D0709D0184B19481D
:10878400204AC01AC0081024184B00940004B3E710
:1087940012F0030F09D0124B12481B4AC01AC0082A
:1087A4001024124B00940004A6E7C568A9420DD317
:1087B4004D1EEC180569AC4208D8CDF82880DEF8C7
:1087C4000C40A44603B0BDE8F0436047044B0548A1
:1087D4000E4AC01AC0081024044B009400048BE70E
:1087E400C88703003088030055890300FE8A03000C
:1087F4005A890300D78903008389030096890300FB
:10880400DD890300078A03001F8A0300428A0300EC
:10881400F7B580B92A4B2B482B4AC01AC0080E243E
:108824002A4B009400042A4940F0010002F055FC50
:10883400204603B0F0BDD0F800C0BCF1000F09D150
:108844001F4B2048234AC01AC00808241F4B009419
:108854000004E8E74AB91A4B1A481F4AC01AC0086C
:1088640009241A4B00940004DDE74568D5F800E0BC
:108874000EF1FF350D4209D0114B1248174AC01AA8
:10888400C0081024114B00940004CCE7C568A94229
:108894000CD34D1E0EFB02540569AC4206D8DCF81D
:1088A4001040A44603B0BDE8F0406047044B0548BF
:1088B4000B4AC01AC0081024044B00940004B2E709
:1088C400C88703003088030055890300EB8A03003E
:1088D4005A8903008389030096890300698A030087
:1088E4008F8A030029DF704728DF704770B503685B
:1088F4009E6886B004460D466EB114220021684677
:1089040009F0EAFBA3680593237901952BB1012BA8
:108914000DD06846B04706B070BD01238DF8003015
:1089240023690293E368039363690493F1E70223E1
:108934008DF80030E3681B030293F5E7084670479F
:1089440000207047024B187A003818BF0120704786
:10895400B02F0020034B187A0122B0FA80F05A7429
:1089640040097047B02F002008B510461A4609F098
:108974008AFB002008BD000008B514220021044829
:1089840009F0AAFB0348FFF7F7FA002008BD00BF6F
:10899400B02F0020A02F002010B5094C094B4360D4
:1089A4002046FFF736FC40B909F0D0F80649207498
:1089B4001C2306488C22FFF7CCFA002010BD00BF10
:1089C400B02F0020248B0300142F0020A02F0020A0
:1089D40038B5234D234C2B7A3BB923492348FFF761
:1089E40027FB206008B9686038BD022324682B7215
:1089F400237973B1012B24D020460321FFF776FF9E
:108A040000232B726B6018491848BDE83840FFF703
:108A14003ABBD4E90523D21AB2F5805FD4E9031036
:108A240028BF4FF480529208012A38BF012219440A
:108A34001844FFF757FF50B11128DDD101232B72E1
:108A4400D2E7D4E903031844FFF74EFFF3E72B7C86
:108A5400002BC9D1BDE83840022000F009B800BF9E
:108A6400B02F0020C82F0020C42F0020A02F0020EA
:108A740038B5234C237A002B41D0022B09D103288B
:108A840030D0204B00221B68E2601A793AB1012AE7
:108A940022D0637C7BBBBDE83840FFF799BFD3E9A4
:108AA40005128D1AB5F5805F94BF521902F58052F4
:108AB4009A619142EDD102284FF0000308BF194694
:108AC4002372104B18BF0D211868FFF70FFF0E49D2
:108AD4000E48FFF7D8FADCE71A6901321A615B69BC
:108AE4009A42E7E7E3680133082B01D8E360D0E753
:108AF4000023E360DFE7BDE8384009F017B838BD6C
:108B0400B02F0020C82F0020C42F0020A02F002049
:108B1400831E012B01D8FFF7ABBF704700F0FD03A4
:108B2400012B08D1044B00225A74421E504250417A
:108B34001874FFF74DBF7047B02F002010B5064CD6
:108B4400201DFFF766FB28B9637C1BB9BDE8104004
:108B5400FFF73EBF10BD00BFB02F00202DE9F34149
:108B640080460D46104801A916461F46FFF726FA0F
:108B74000446B0B118220021043009F0ADFA2D0BDF
:108B84000123237101A90848C4F80080A760E560A7
:108B94006661FFF73DFAFFF7D1FF002002B0BDE8A0
:108BA400F0810420FAE700BFA02F00202DE9F34153
:108BB40080460F460F4801A916461D46FFF7FEF9E9
:108BC4000446A8B118220021043009F085FA089B54
:108BD400A36001A9C4E903670648C4F8008065617D
:108BE400FFF716FAFFF7AAFF002002B0BDE8F081F4
:108BF4000420FAE7A02F00202DE9F84FB0F806A0D2
:108C04004579D2F800B09DF828900AFB05F5043D9B
:108C140088460BEB0301A94203F1040488BFA5EBCA
:108C2400030BB4FBFAF607460AFB1644C2F800B07D
:108C34004EB9AAEB04055D4528BF5D46BBF1000FA4
:108C440004D1BDE8F88F3F68013EF1E7043408EB36
:108C540006003C442A46B9F1000F0DD02146ABEB87
:108C6400050B09F010FADA452E443F6855464FF0DB
:108C7400000428BF5D46E1E701462046EFE7FFF721
:108C8400D1BAF8B546790146721E054600239342CF
:108C94002D6803D30024A64202D8F8BD0133F6E7B9
:108CA4000F682846FFF7F9FA01343946F3E72DE94E
:108CB400F843068ACD1C0746FFF7CBFA043E354439
:108CC4000446B5FBF6F5F0B14FF48073EDB2838042
:108CD400C680013D076081464FF00008A84512D2C6
:108CE4003846FFF7B6FA064648B163790133637133
:108CF40008F10108C9F8000007608146EEE7204644
:108D0400FFF7BFFF34462046BDE8F8830121043055
:108D1400FFF767BA10B5012104460430FFF76DFA76
:108D2400C0B220B92046BDE81040FFF7AABF10BD6D
:108D34001FB503920022009203AAFFF75DFF05B05E
:108D44005DF804FB1FB503920122009203AAFFF70A
:108D540053FF05B05DF804FB41DF7047064B10B5C7
:108D640000241C70054B1C60BFF35F8F0449054849
:108D740000F0A8F8204610BDD42F0020D82F0020E2
:108D84005C8B0300CC2F002007B500230DF10700F6
:108D94008DF80730FEF7E4F9F1EE103A23F09F0363
:108DA400E1EE103ABFF35F8F0A4B4022C3F88421EF
:108DB4009DF80700FEF7F8F908F0C8FE20B103B0EB
:108DC4005DF804EBFFF7C8BF20BF40BF20BF03B06E
:108DD4005DF804FB00E100E0026813685268934206
:108DE40091BFD01A80680130801888BFC01A7047BC
:108DF400036881681A685B688B4234BF01330023BF
:108E0400D31A58425841704773B5002304460DF1F4
:108E140007000D468DF80730FEF7A2F92046FFF74C
:108E2400E7FF10B1237C002B3BD12368A1685E6867
:108E34005A688A4234BF013200225A6028B11A6843
:108E44008A4234BF013200221A60E2686368511E0C
:108E5400072920D8DFE801F004101F141F1F1F1872
:108E64002A789A552046FFF7B7FF23689A6882420A
:108E740000D29860002415E02A8823F81620F1E730
:108E84002A6843F82620EDE7D5E9000103EBC60381
:108E9400C3E90001E6E7294602FB063009F0F3F8CE
:108EA400E0E704249DF80700FEF77EF9204602B0AF
:108EB40070BD836800225A60C3E904229A60DA60B4
:108EC4001A6070470B684A684360934208BF0023E6
:108ED400016008BF43607047436843B1026891680A
:108EE40052680B449342436004BF002343607047BD
:108EF40010B50D49A1F59472914201D800200FE0FC
:108F04008C1AE30F03EBE4035B1002EBC30452F887
:108F14003330834205D802D204F10802ECE76068DA
:108F240010BD2146E8E700BF6090030008B5FFF7D5
:108F3400DFFF024B002808BF184608BD228F03003C
:108F44000B7B23B14B6803600023037170470B68EC
:108F540003600123F9E703684A68896810B5D41AE5
:108F64008C428BBF5B1800230360026098BF0371BF
:108F740010BD03680A68896810B59C1A8C428BBFBF
:108F84005B1A01230360026098BF037110BD03796B
:108F940010B504461BB1FFF7DEFF206810BDFFF7D4
:108FA400E8FFFAE738B5074C051E04F1080318BFBB
:108FB4001C4623682BB11A6822605B6828469847D0
:108FC400F7E738BDE42F002020B9054B01225A7081
:108FD400FFF7E8BF012802D1014A9070F8E7704713
:108FE400DC2F002020B9034B01225A70FFF7DABFAF
:108FF400704700BFDC2F002038B50B4C237883B9B1
:109004000A486360A3602361E36000F019F9054630
:1090140008F09CFD08B900F01FF9012323702846CD
:1090240038BD8525FBE700BFDC2F0020CD8F020073
:1090340037B50B4C00230DF107008DF80730FEF710
:109044008FF8E368013BE360E56815B900F016F9B1
:10905400A5709DF80700FEF7A7F803B030BD00BF68
:10906400DC2F0020012813B508D003281CD018B920
:10907400114B0122C3F8802002B010BD0F4C002315
:109084000DF107008DF80730FEF76AF823780BB965
:10909400FFF7B2FFE3689DF807000133E3600123A3
:1090A400A370FEF781F8E7E700F0D6F802B0BDE858
:1090B4001040FFF7BDBF00BF00E100E0DC2F00203F
:1090C4001FB500238DF807000DF10F008DF80F3048
:1090D400FEF746F808F03AFD50B909480DF10701CA
:1090E400FFF792FE0648FFF783FE08B100F0AEFBDF
:1090F4009DF80F00FEF758F805B05DF804FB00BFBB
:109104006887030007B520B103280DD003B05DF8CC
:1091140004FB104B1B78012BF8D100F097FB03B034
:109124005DF804EB00F09ABB00230DF107008DF805
:109134000730FEF715F807480378012B05D10649D7
:10914400013000F043FB00F06FFB9DF80700FEF7D1
:109154002BF8DBE740300020C59002001FB50378F0
:109164008DF800304368019383688DF80830C36834
:10917400054A0393054B684653F8213052F82110F1
:10918400984705B05DF804FB443000204C300020C3
:109194001FB503788DF800304368019383688DF818
:1091A4000830C368054A0393054B684653F82130D9
:1091B40052F82110984705B05DF804FB44300020B4
:1091C4004C300020F0B5194B90F800C0DFF86CE08B
:1091D40043F82C20164B16460A6943F82C204B7F83
:1091E4000EF80C300C4607460FCC89B06D460FC5FF
:1091F40094E80F0085E80F003B78CDF810C01EF806
:1092040003304BB1002E0B4A694608BF3246381D65
:1092140000F056FE09B0F0BD002E074A694608BFAB
:10922400324607F10C0000F02FFCF3E74C3000202D
:1092340044300020619102009591020054300020D6
:10924400044A137923B901211060918018467047AC
:109254008520704758300020074B1A68D2075FBF3B
:10926400C02283F8002301221A604FF080430122B8
:10927400C3F81825704700BF00E100E04FF08043B9
:109284000122DA60D3F81824D203FBD4704700001B
:109294004FF0804307B5D3F800217AB10022C3F818
:1092A4000021D3F800210092009A0122C3F8082378
:1092B4000F4B587910B95A711B6898474FF0804387
:1092C400D3F8042182B10022C3F80421D3F8042185
:1092D4000192019A0222C3F80823054B1B6801205E
:1092E40003B05DF804EB184703B05DF804FB00BF5E
:1092F4005830002000F1804000F5C040002382B0C7
:10930400036003680193019B02B0704703681F2B3D
:1093140083BF03F01F03036001484FF0A040704770
:109324000003005007B5019001A8FFF7EFFF019B70
:1093340000EB8300D0F8003723F44033C0F8003743
:10934400D0F8003743EA0141C0F8001703B05DF8D4
:1093540004FBC208012300F0070003FA00F08B5C51
:109364001843885470470000054B4FF0FF3207281C
:1093740043F8202084BFC01880F85820704700BFED
:109384006030002038B5144D95F86A4014BB302283
:10939400FF21A81808F0A0FEE0B20134FFF7E4FFB3
:1093A4000C2CF9D10D4B00226A669A800C4BC0211B
:1093B40083F80613402119604FF4BE70FFF79AFF3B
:1093C400084B4FF00041C3F80413012385F86A30B9
:1093D400104638BD0820FCE760300020C43000206F
:1093E40000E100E000600040034B93F86A0000389D
:1093F40018BF0120704700BF603000202DE9F34101
:10940400DFF8F48008EB0003054693F93030002BB5
:109414000F466CDA8B78C3F34003002B0BBF082490
:1094240000240C2108218C4203D1042002B0BDE8A1
:10943400F08158F82400013041D108EB050166B2EF
:1094440048F8242081F830601BB908EB040383F842
:109454005850BB785A0712D4D90732D501A80195C0
:10946400FFF754FF019B00EB8300D0F8003723F093
:109474000203C0F800371F492846FFF76AFFBB788C
:109484003A7813F0020328D0A40004F1804404F5D0
:10949400C0442D02D4F8103523F44F3323F4407321
:1094A400C4F810351204D4F8103505F47C5502F4D0
:1094B400403215431D43C4F810550020B6E701346B
:1094C400B1E701A87A780195FFF720FF019B03F526
:1094D400E073920040F82320CDE7083E48FA86F86E
:1094E40098F8605045EA821288F86020E5E7082081
:1094F4009CE700BFC43000206030002073B5244DC9
:109504002E18044696F93020072A1DDD083A45FA3C
:1095140082F595F860309B09032B10D1019001A8C6
:10952400FFF7F4FE019BD0F81015D94001F00101BA
:109534000231204602B0BDE87040FFF7F3BE012BB4
:109544000CBF02210321F4E7D3B2072B1DD89300EB
:1095540003F1804303F5C043D3F8100540F0010044
:10956400C3F8100502F1400040B2800080B2FFF75A
:10957400C1FE51B196F9303055F823302BB1012397
:1095840003FA02F2034BC3F8042302B070BD00BF18
:10959400603000200060004007B5019001A8FFF78B
:1095A400B5FE019BD0F81005D84000F0010003B0CF
:1095B4005DF804FB2DE9F04F00248BB0CDE90444A1
:1095C400644D4FF48072012102F1804303F5C043DE
:1095D40090B21B68012B06D1D5F804330B4202D09C
:1095E400FFF788FE0C430432B2F5907F4FEA410145
:1095F400EAD1584BD3F87C31012B0ED14FF4BE7015
:10960400FFF778FE4FF0A04344F00044D3F8103540
:109614000493514BD3F810350593E3B2D3B14F4FB4
:1096240000250126344210D0AB0003F1804303F53A
:10963400C043D3F81005D3F8101557F8253023B1DB
:10964400C1F30141C0F3052098470135082D4FEAC5
:109654004606E7D1002C79DA0023CDE906334FF032
:10966400FF33CDE90833DFF8F4A03D4B0193002626
:109674003546019B13F9014B0193631C4DD0C4F390
:10968400C2070122E3B204F03F0B04F0070402FA1C
:1096940004F40AAA174417F8081C21423DD00AEB27
:1096A4000B014FEA931991F930105AF82180B8F15F
:1096B400000F07D1B9F1030F2FD106A95846FFF7C0
:1096C40048FE02E0B9F1030FF7D003A8CDF80CB0BF
:1096D400FFF71CFE039901F5E07150F8211017F80B
:1096E400180C2042C1F3014106D0022915D1B9F169
:1096F400030F0CD1494605E003290ED1B9F1030F3C
:1097040005D102215846FFF70DFE0135EDB2B8F13F
:10971400000F02D049465846C0470136042EA8D14E
:10972400A5B14FF0A0430499D3F8102503F5407375
:109734009142D3F8103502D10599994206D004928A
:109744000593069A079B089209938EE70BB0BDE830
:10975400F08F00BF00600040000300506030002024
:10976400C0300020014B1B68184700BFCC300020DC
:109774000E4B984237B50C4602D0002003B030BDE2
:1097840000230DF107008DF80730FDF7E9FC084BC5
:109794001D7915B901221C601A719DF80700FDF7A7
:1097A40003FD002DE9D01120E8E700BF00200040B0
:1097B400CC300020034B984201BF034B00221A60B7
:1097C4001A71704700200040CC30002010B5124CB4
:1097D4002378FBB9114B1960037813F0010F104B78
:1097E4001EBFD3F8042542F00102C3F80425D3F8C0
:1097F400002222F00102C3F800224378094A5B01E7
:10980400DBB282F80D334FF400531360012323704D
:10981400002010BD8520FCE7D8300020D430002083
:1098240000D0004000E100E0074B0022C3F8002113
:1098340082B0D3F800210192019A0122C3F80423D3
:109844001A6002B0704700BF00D00040024B0122F2
:10985400C3F808235A60704700D00040064B012229
:10986400C3F808235A60054B4FF40052C3F8802014
:10987400034B00221A70704700D0004000E100E062
:10988400D8300020074B0022C3F8002182B0D3F85F
:1098940000210192019AD3F80805034B1B68C0B25A
:1098A40002B0184700D00040D430002000234350B9
:1098B40082B043580193019B02B070470A4610B529
:1098C4004FF48E71FFF7F2FF136A9168C95C136A53
:1098D40001331362C0F81C1510BD8B690A4610B51C
:1098E4004FF4847123B9FFF7E1FFD0F8183510BDA8
:1098F400FFF7DCFF536AD168D0F81805C854536ADF
:1099040001335362F3E700001FB501238DF80030E3
:10991400044BCDE90110D3E900126846904705B025
:109924005DF804FBDC30002030B54D4DD5F8043330
:109934009A0585B051D5D5F82431002B4DD04FF47C
:1099440092712846FFF7B2FF4FF40173C5F808334C
:10995400444B93F829200AB901226A604049022243
:109964008DF80020D1F88024C1F8802403929A69EC
:109974000292DA6801920022C3E906226846D3E91A
:10998400001290473648D0F81C315BB1354A116A51
:10999400536999424DD292F82830002B49D111468F
:1099A400FFF78CFF2E48D0F84431002B55D04FF4EC
:1099B400A271FFF77BFF2B4B93F829200AB10122F8
:1099C40002609A69002A48D0586AD96800229A61CC
:1099D40005B0BDE83040FFF797BFD5F804335B0707
:1099E400D0D5D5F80831002BCCD01E4C1C482146CC
:1099F400FFF773FF636AA2699A42C3D1E369E1681E
:109A04004BB1A3612369E3600023606AE36163628D
:109A1400FFF77AFFB6E794F829300BB901236B609E
:109A24000F4B4FF40172C3F808230023606AA3614B
:109A3400EEE74FF48E710A48FFF738FF51690029A9
:109A4400B0D00023029191688DF8003001915361E8
:109A54006846D2E900139847A4E705B030BD00BFBB
:109A640000200040DC3000201F2886BF00F01F00CB
:109A7400044B4FF0A04300F5E070022243F820208D
:109A8400704700BF000300502DE9F843624D90F881
:109A940004802C2303FB0853064693F82A300C4613
:109AA4009146002B40F0B4805C490068FFF760FEEB
:109AB4000746002840F0AE802268531C10D01F2AAD
:109AC40087BF574902F01F0313464FF0A0410120FE
:109AD400984003F5E073C1F80805032041F823001A
:109AE4006168481C0DD01F298BBF01F01F030B4672
:109AF4004B484FF0A04003F5E0734FF0000C40F8E2
:109B040023C03068A369C0F8243594F814C0637D79
:109B1400BCF1010F4CEA0303C0F86C35C0F814150E
:109B2400C0F80C252BD1A368591C0DD01F2B8BBF5B
:109B340003F01F021A463A494FF0A04102F5E072C1
:109B44004FF0000C41F822C0E1684A1C13D01F29D1
:109B540087BF334A01F01F0C8C464FF0A0424FF0F0
:109B6400010E0EFA0CFE0CF5E07CC2F808E54FF08D
:109B7400030E42F82CE0C0F80815C0F810352C226A
:109B840002FB08F2AB18C3F804902369AB50B9F197
:109B9400000F2AD04FF48E71247FFFF787FE3068C0
:109BA4004FF4A271FFF782FE32681E4BC2F80433F1
:109BB400130B42F30732002AA8BF02F160404FEAB8
:109BC4004411BABF184803F00F0400F56140C9B24C
:109BD400B4BF015580F8001303F01F03012101FAFB
:109BE40003F35209114941F8223033680422C3F8BF
:109BF40000252C2303FB08530022C3E9062283F823
:109C040029205A61012283F82A203846BDE8F883C6
:109C14000827FAE71127F8E7DC3000202D99020025
:109C2400000300508000020014ED00E000E100E0B9
:109C34002DE9F04103680579244C0022C3F800257E
:109C44002C2202FB0542014652686AB1204AC3F83D
:109C5400082343F30732C3F3043652090120B0400A
:109C640020321C4E46F82200D3F80C05D3F8148594
:109C7400D3F80865D3F810754FF0FF329042C3F85B
:109C84001425C3F80C25C3F80825C3F8102501D002
:109C9400FFF7EAFEB8F1FF3F02D04046FFF7E4FECB
:109CA4007A1C02D03846FFF7DFFE731C02D0304620
:109CB400FFF7DAFE0868FFF77DFD2C2303FB05445C
:109CC400002384F82A306360BDE8F081DC30002092
:109CD4008402020000E100E00279044B2C2101FB24
:109CE40002335869003818BF01207047DC30002067
:109CF4002DE9F84F064689469246FFF7EDFF0446E4
:109D040000283DD196F804801F4F2C2508FB057BC5
:109D14004FF48E71CBF82000CBF814A08BF82800F8
:109D2400CBF808903068FFF7C1FD306801238360E9
:109D34005946FFF7C3FDDBF804305D4613BB3068BA
:109D44002A6A6B699A4211D33368D3F81C21002A1A
:109D5400FBD00122DA6000202C2303FB08770023C8
:109D64007B61BDE8F88F95F828303BB9D0F81C31F9
:109D7400002BF8D05946FFF7A1FDE1E70F20EBE7F0
:109D84001120EEE72046ECE7DC30002000234350AE
:109D940082B043580193019B02B070471FB5012361
:109DA4008DF80030044BCDE90110D3E90012684668
:109DB400904705B05DF804FB083100207FB5364AB2
:109DC400D2F82461002E46D010464FF49271FFF76A
:109DD400DDFF02238DF80030D2F88034C2F88034DD
:109DE4000393D2F83C3502932C4BDA68019200229B
:109DF400C3E906226846D3E9001290472648D0F802
:109E0400443173B14FF4A271FFF7C0FF234B9A6939
:109E14003AB10022C3E90622D968D0F83C05FFF71D
:109E2400BDFF1D48D0F820319BB14FF49071FFF76E
:109E3400ADFF1A4B5A6962B1D0F84C150291002259
:109E440099688DF8002001915A616846D3E900129F
:109E5400904704B070BDD2F81031002BCED04FF42F
:109E640088711046FFF792FF0C4BD2F83C059969B4
:109E74008842C3D1DC69D96864B1D2F8005225F0B4
:109E84002005C2F800521A699C61DA60DE61FFF7AE
:109E940085FFB3E79C61FAE7002000400831002009
:109EA4001F2886BF00F01F00044B4FF0A04300F5AD
:109EB400E070022243F82020704700BF00030050E6
:109EC4002DE9F843664E90F80480242303FB0863CD
:109ED400054693F820300C469146002B40F0BC8098
:109EE40060490068FFF744FC0746002840F0B6804C
:109EF40021684B1C10D01F2987BF5B4A01F01F0348
:109F04000B464FF0A0420120984003F5E073C2F8DD
:109F14000805032042F823006268501C0DD01F2A54
:109F24008BBF02F01F0313464F484FF0A04003F5C8
:109F3400E0734FF0000C40F823C02868A369C0F810
:109F4400243594F814C0637DBCF1010F4CEA03037B
:109F5400C0F86C35C0F80C15C0F814252BD1A368D3
:109F6400591C0DD01F2B8BBF03F01F021A463E490C
:109F74004FF0A04102F5E0724FF0000C41F822C00E
:109F8400E1684A1C13D01F2987BF374A01F01F0C10
:109F94008C464FF0A0424FF0010E0EFA0CFE0CF569
:109FA400E07CC2F808E54FF0030E42F82CE0C0F85C
:109FB4000815C0F81035242202FB08F2B318C3F8C0
:109FC40004902369B350B9F1000F34D04FF4887171
:109FD400227FFFF7DBFE28684FF49071FFF7D6FE6F
:109FE40028684FF49271FFF7D1FE28684FF4A271EC
:109FF400FFF7CCFE2B681D49C3F80413190B43F378
:10A004000733002BAEBF03F1604001F00F04184882
:10A014004FEA4212A8BF00F56140D2B2B4BF025564
:10A0240080F8002301F01F01012202FA01F15B090B
:10A03400104A42F823102B680822C3F80025242371
:10A0440003FB08660023C6E906337361012386F81F
:10A0540020303846BDE8F8830827FAE71127F8E7E7
:10A0640008310020C19D02000003005010030200CB
:10A0740014ED00E000E100E02DE9F041036805790A
:10A08400244C0022C3F80025242202FB0542014689
:10A0940052686AB1204AC3F8082343F30732C3F372
:10A0A400043652090120B04020321C4E46F82200EA
:10A0B400D3F80C05D3F81485D3F80865D3F81075D4
:10A0C4004FF0FF329042C3F80C25C3F81425C3F8AF
:10A0D4000825C3F8102501D0FFF7E2FEB8F1FF3FD1
:10A0E40002D04046FFF7DCFE7A1C02D03846FFF768
:10A0F400D7FE731C02D03046FFF7D2FE0868FFF784
:10A1040059FB242303FB0544002384F820306360B7
:10A11400BDE8F081083100201003020000E100E0F6
:10A124000279044B242101FB02335869003818BF1B
:10A13400012070470831002001F06043B3F1005F53
:10A144002DE9F04706468846924635D190F80490AA
:10A15400FFF7E6FF044688BB1A4F3068242505FB49
:10A1640009754FF49071C5F814A0C5F80880FFF77D
:10A174000DFE4FF4AC713068FFF708FE33686A696E
:10A18400A968C3F84415C3F8482501229A606A688F
:10A19400B2B9D3F82021D3F858014AB90028F8D02D
:10A1A4000F20242303FB097700237B61BDE8F0879C
:10A1B400002818BF0F20F4E71020F7E71120F5E777
:10A1C4002046F3E7083100201FB503788DF80030EE
:10A1D4008388ADF8043083688DF80630C3688DF841
:10A1E4000730036902934369054A0393054B6846A4
:10A1F40053F8213052F82110984705B05DF804FB5C
:10A204002C31002034310020024B4FF4807043F095
:10A2140001031847909003001F2886BF054A00F0E9
:10A224001F004FF0A042012303FA00F0C2F8080512
:10A23400704700BF000300502DE9F047154690F821
:10A244000080394A42F82850384A42F828304B7B7B
:10A2540006460C46A3B30868DFF8D8904FF0A04137
:10A2640000F5E07340F20C6241F82320636803F5C3
:10A27400E073002741F82320FFF7CEFF6068FFF763
:10A28400CBFF236803F5E07340F20D6241F823200D
:10A29400636803F5E0734FF0010A41F82320FFF7E8
:10A2A400B3FF63681F2B8ABF4A464FF0A04203F0F6
:10A2B4001F03D2F8102522FA03F3DB070BD507BBE3
:10A2C400002D1B4A434608BF2A462146301DBDE8DF
:10A2D400F04700F0D9B823681F2B86BF03F01F0393
:10A2E4004A464FF0A0420AFA03F3C2F80C35FFF7CE
:10A2F4008BFF01372068FFF78FFFFFF785FF092FDA
:10A30400CFD163681F2B86BF0A4903F01F034FF0A8
:10A31400A041012202FA03F3C1F80C35FFF774FFE0
:10A324006068FFF779FFCBE7343100202C3100203F
:10A33400CDA10200000300500023435082B04358D3
:10A344000193019B02B07047F0B54B4D4B4CD5F8CF
:10A35400243187B0A3B14FF492712846FFF7ECFF84
:10A36400D5F8043163B9A368C5F808330223A360A0
:10A37400A368C5F8043301232B626B6107B0F0BDF9
:10A38400D5F80431002B48D03D4F3B484FF482713F
:10A39400FFF7D2FF0FCF01AE0FC63B68336094F8CE
:10A3A4002E307BB1237B012B0CBFD5F83C25D5F88F
:10A3B4004C250292022B304B0CBFD3F83C35D3F81A
:10A3C4004C3503932C484FF4B071FFF7B5FF4FF4AD
:10A3D400AE71FFF7B1FF94F8303013B194F82E301A
:10A3E4003BB1254B0022C3F80022A260254AC3F8E2
:10A3F4000823214AD2F8C434C2F8C4349A0736D5A3
:10A4040001238DF8003094F830300BB984F82F30E4
:10A41400D4E9003168469847B0E717484FF4A4716F
:10A42400FFF78AFF237B83B9154F0FCF01AE0FC609
:10A434003B68336094F83030002BDAD1C5F8003231
:10A44400A360104BC5F80833D3E74FF40073C5F885
:10A45400003240F20223A36003F1CE73C5F808333F
:10A46400A368C5F804330123AB602B6286E713F0BD
:10A47400040318BF0223C4E7003000403C3100202D
:10A484004831002002029C012DE9F84F06793C4D29
:10A494004FF0340A0AFB06FA05EB0A079B4697F8C5
:10A4A4002D3080460C469146002B65D13549006815
:10A4B400FFF75EF9002861D12168637B87F83230A9
:10A4C4001F298CBF01F01F030B4603F5E07388BFFF
:10A4D4002D4AB86098BF4FF0A04240F20C6C87F848
:10A4E4002F0042F823C06268C7F804B01F2A8CBF4B
:10A4F40002F01F03134687F8300003F5E07388BFAA
:10A50400214F45F80A9098BF4FF0A04747F823C061
:10A51400D8F80030C3F80815C3F80C25A268C3F8AE
:10A524002425B9F1000F1FD043F307310029227B02
:10A53400B4BF164C01F16044C3F30733B8BF03F052
:10A544000F074FEA4212A8BF04F56144D2B2B4BF68
:10A55400E25584F8002303F01F03012202FA03F3F7
:10A5640049090B4A42F82130342303FB06550123E1
:10A5740085F82D30BDE8F88F0820FBE71120F9E7B6
:10A584003C3100204DA302000003005014ED00E014
:10A5940000E100E0036802790621C3F80015044BCA
:10A5A400342101FB0233022283F82D20704700BFBF
:10A5B4003C3100202DE9F843CB6803F06043B3F14C
:10A5C400005F0D46904603D010263046BDE8F88360
:10A5D40090F80490934F0468934BC4F808333426DE
:10A5E40006FB097696F82F3023B1B368C4F8043318
:10A5F4001126EAE712F0140F0CBF0123002386F89A
:10A604002F308E46BEE80F0006F10C0CACE80F00AC
:10A61400DEF80030CCF80030C8F3001386F8303090
:10A624006B78C4F888354FF482712046FFF784FEB6
:10A634004FF49271FFF780FE18F0010318BF012355
:10A64400C4F8503518F0020318BF0123C4F840358C
:10A654002B78032B00F2C580DFE803F087AD680296
:10A664002B6903F06043B3F1005FADD14FF4807305
:10A67400C4F80032EA686B68C4F844254FF4A87142
:10A68400C4F84835FFF758FE4FF4B071FFF754FE95
:10A694004FF4A471FFF750FE01232362A360D4F8A2
:10A6A4005031002BFBD04FF4A8712046FFF744FE35
:10A6B400AB682A69C4F84425C4F84835342303FB3D
:10A6C40009735A4A9A604FF482710823002618F0DD
:10A6D400080F04D12A78032A1CBF0122E250342334
:10A6E40003FB09F3FA18FB58002B7FD10122214404
:10A6F4000B68002B00F087803422D4F8C434C4F8EB
:10A70400C43402FB0977002287F82F20002B3FF482
:10A714005CAF13F0020F48F2012608BF032613F0C2
:10A72400040F48F2022318BF1E464EE76B68EA681E
:10A73400C4F84425C4F848352B6903F06042B2F1EB
:10A74400005F7FF441AFAA68C4F834354FF48453F2
:10A75400C4F83825C4F80032342303FB097340F2EB
:10A7640002229A6001232362ADE76B68EA68C4F8A9
:10A77400442518F0200FC4F848354FF034030ED0A8
:10A784004FF4807203FB0973C4F80022274A9A60CD
:10A794004FF4A471FFF7D0FD0123236295E74FF432
:10A7A400007203FB0973C4F8002240F202229A608B
:10A7B4004FF48271F0E76B68EA68C4F83425C4F892
:10A7C40038354FF48053C4F80032342303FB097343
:10A7D40040F202229A60012323624FF48271002323
:10A7E40074E74FF482710823072670E718F0040F0A
:10A7F4001CBF4FF400739360342303FB0977BB68D9
:10A80400C4F80433E1E6D4F82431002B3FF470AFEC
:10A814004FF492712046FFF78FFD22624FF482714C
:10A82400626164E73C31002002029C0100020400E2
:10A83400F0B587B004460F4615460021142201A83E
:10A844001E4607F049FC9DF830308DF80570002B4A
:10A8540014BF2022002201A9204602960495FFF786
:10A86400A9FE07B0F0BD0000074B1B5C1F2B8ABF7D
:10A87400064A4FF0A04203F01F03D2F80405D84063
:10A88400C04300F0010070479F9003000003005094
:10A89400074B1B5C1F2B86BF064903F01F034FF0B9
:10A8A400A041012202FA03F3C1F80C35704700BF3E
:10A8B4009F90030000030050074B1B5C1F2B86BFB7
:10A8C400064903F01F034FF0A041012202FA03F3EB
:10A8D400C1F80835704700BF9F9003000003005083
:10A8E40008B50020FFF7E8FF0120FFF7E5FF02208D
:10A8F400FFF7E2FFBDE808400320FFF7DDBF08B51E
:10A904000020FFF7C5FF0120FFF7C2FF0220FFF779
:10A91400BFFFBDE808400320FFF7BABF0A4B185C2D
:10A924001F288ABF094B4FF0A04300F01F00D3F843
:10A9340004250121814021EA02000A40C3F80805E8
:10A94400C3F80C25704700BF9F900300000300501C
:10A95400074B1B5C1F2B8ABF064A4FF0A04203F033
:10A964001F03D2F81005D840C04300F0010070471F
:10A974009B900300000300500B2809D00C2809D039
:10A98400182809D019280CBF03204FF0FF30704756
:10A99400002070470120704702207047014B185C6B
:10A9A400704700BF9B900300C20710B504460CD546
:10A9B4004FF0A0430322C3F80C27C3F81427C3F8AD
:10A9C4003C27C3F84027FFF78BFFA3070AD54FF0B6
:10A9D400A0430C22C3F82C27C3F83027C3F8602700
:10A9E400C3F8642710BDF0B595B01D461646084659
:10A9F4000C46FEF78BF91A9B0D93CDE908650025EB
:10AA04002B46082205A920460A958DF82C500C9552
:10AA1400FEF798F9079B0293069B03939DF8143065
:10AA24008DF8115003F00302012A1DD1BDF8142042
:10AA3400059DC3F3C203C2F383168DF81030B20030
:10AA440008230EA92046FEF77DF9C5F3952508AB2A
:10AA54000093324602AB0EA9284600F0FFFB2046C5
:10AA6400FEF758F915B0F0BD022AF8D1BDF816501A
:10AA7400C3F3C203C5F389158DF810300827082DD8
:10AA84002E4628BF08263B4632460EA92046FEF72E
:10AA940059F9AD1B08AB02AA31460EA8374400F0A1
:10AAA40041FC002DEBD1DAE7014B01221A7070470B
:10AAB400B13100207047000070B50E4D06460FCD31
:10AAC40088B06C460FC495E80F00002E84E80F0090
:10AAD400094A0A484FF0060308BF0022694600935A
:10AAE400FEF770FB08B1FCF741F8054B1E7008B087
:10AAF40070BD00BFA4900300ADAA02009C2B0020EF
:10AB04007031002007B5044B0093044A4023FFF73B
:10AB14006AFF03B05DF804FB25AB0200713100202D
:10AB240038B50D480D4C0E4D002323700378EB5CB3
:10AB3400D2B263B10430FFF7FFFA08B1FCF716F89C
:10AB4400084B1A7812B12378002BFBD038BD0C3097
:10AB5400FFF7CEF8F1E700BF9C2B0020B1310020B5
:10AB6400543000207031002008B50848084A0378A2
:10AB7400D35C3BB10430FFF77FFABDE80840002006
:10AB8400FFF79ABF0C30FFF753F8F6E79C2B002031
:10AB9400543000200120FFF78FBF000008B5FFF7F5
:10ABA400F9FF0448042100F0C3FA034B01225A714F
:10ABB40008BD00BFB0880300B02B0020037813F059
:10ABC400040216D003F00303012B03D0022B09D097
:10ABD400012070470A6800880232C0F383100244DF
:10ABE4000A60F5E70B684288023303EB92130B60AB
:10ABF400EEE71046704700002DE9F04FDFF830A172
:10AC040087B00F4600230446861C0DF10700154645
:10AC14008DF80730FCF7A4FADAF800103960DAE9A5
:10AC24000132134401335B1A0AF21C470AF58369A3
:10AC34000AF21448B3421CD30020002D73D004F050
:10AC44000F039B0143F0050363F30F00DAF80020C0
:10AC5400DAF808301340033332444AF823009DF8ED
:10AC64000700CAF80020FCF79FFA012007B0BDE8EE
:10AC7400F08F01213846FDF7B4FA4846FDF7CCFAC7
:10AC84004046FDF7C9FADAF80400DAF808B0029091
:10AC940000EA0B0003300AEB800002A9FFF78EFFE5
:10ACA400029B50BB0BEA03020AEB820203F1020C83
:10ACB400D2680392013303EA0B0B0AEB8B0B02F00D
:10ACC4000302012ADBF80C10CDF808C023D0022AB5
:10ACD40016D083464046FDF7A2FA10B1029BCAF88B
:10ACE400043059463846FDF77CFADAE90123134467
:10ACF400DAF8002001339B1A9CE70BEA0300C9E74A
:10AD0400BDF80E30C3F3891303334FEA114B0CEB38
:10AD140093030293DEE7BDF80C30C3F383134FEAC9
:10AD2400114B6344F5E7A40544F006008EE700BF29
:10AD3400843200200B4B0C48FF2210B59A6000228D
:10AD4400C3F81824C3E90022C3F8142483F8202488
:10AD5400FDF795FF044610B90448FEF7AAF820460B
:10AD640010BD00BF84320020AC870300F8900300BC
:10AD740030B50A4C71B10A4A0A49121BD2080023A1
:10AD84009A4201D1002030BD31F82350854202D0CF
:10AD94000133F5E7034654F83300F4E7C8870300AA
:10ADA400B08803009C2B0020094B013903EBC00041
:10ADB400032909D8DFE801F00A02040604207047D9
:10ADC400007970474079704700207047022070472F
:10ADD400C8870300034BD3E90030C31A58425841D3
:10ADE400704700BF843200202DE9F04387B0FFF79D
:10ADF400F1FF0646002840F0FE80804CC4F8180499
:10AE0400BFF34F8F6368A56802932B40033304EBB1
:10AE1400830002A9FFF7D2FE029B18B1D4F81824CC
:10AE2400002A62D005EA0302991C013304EB820272
:10AE34002B4004EB8303D268DB68049302F0030322
:10AE4400022B0392029163D1BDF80E306C48C3F318
:10AE54008917502FB84628BF4FF0500808F1080151
:10AE640068F38F13C1F30901ADF80E30FDF71FFF2E
:10AE74000646002800F0AA80FDF748FF00230822B8
:10AE840003A93046FDF754FF029925EA0102013275
:10AE9400B8EB820F4FEA820333D95FFA88F863B3C1
:10AEA4002940DDB2A8EB050803315FFA88F9A8460A
:10AEB400544D04EB8101082342463046FDF738FF28
:10AEC4003DB108F10803DBB24A4629463046FDF796
:10AED4002FFF029B033703EB97070297D4F818342C
:10AEE400002B4BD1D4F810545BE022689A428CD8E2
:10AEF4006260304607B0BDE8F08342491D4699467A
:10AF0400D9E7294003310823424604EB8101DDE7F8
:10AF1400012B5BD1BDF80C303948C3F383110629EA
:10AF240028BF062161F38913023101F00F01890062
:10AF3400ADF80C30FDF7BBFE0646002846D0FDF701
:10AF4400E5FE0023082203A93046FDF7F1FE0027A1
:10AF5400BDF80C20C2F38312BB00974203F108032F
:10AF6400BCD202994A1C29400331029204EB8101AC
:10AF740004223046FDF7DCFE0137E9E73046FDF7F1
:10AF8400C9FEFFF727FF80F00100C6B2B1E7EB6806
:10AF94005B7923B12B6831461B6828469847EB68D8
:10AFA4001D68002DF3D13046FDF7B4FE0DF1070006
:10AFB4008DF80750FCF7D4F8D4F818340BB9029B79
:10AFC40063609DF80700FCF7EFF8DAE7D4F8104463
:10AFD40054B90D4B0D480E49C01AC008000440F086
:10AFE400020000F063F8CCE7236820469B6898478A
:10AFF400E3681C68ECE700267BE700BF843200208E
:10B00400AC87030090320020C88703000088030047
:10B01400E19003002DE9F74F224E04460F46924675
:10B0240001A901221846D6F808909B46FFF7E4FDD3
:10B0340020B3019D4FF00008AA1CD84508EB02017B
:10B0440026D119480021FDF785F880F3100000048B
:10B0540040EA1440E4006B1C04F0380403EA0903DA
:10B0640005EA090544F0010406EB8303033544EAC9
:10B07400881444EA8724D86046F8254096F820349A
:10B084001BB1FFF7B1FE0028FBD103B0BDE8F08F80
:10B0940009EA010106EB81015AF82830CB6008F176
:10B0A4000108CAE784320020A036002000231A4693
:10B0B400FFF7B0BF07B50123019201AAFFF7AAFF6A
:10B0C40003B05DF804FB07B5CDE9002302236A460B
:10B0D400FFF7A0FF03B05DF804FB1FB5CDE9012322
:10B0E400069B039301AA0323FFF794FF05B05DF8C1
:10B0F40004FB1FB5CDE90023069B0293079B039332
:10B104006A460423FFF786FF05B05DF804FB7FB5AC
:10B11400CDE90123089B0393099B04930A9B0593A0
:10B1240001AA0523FFF776FF07B05DF804FB0000D2
:10B1340030B50F4CD4F8102403460020114631B921
:10B14400D96808714AB9C4F810340A6030BDC968B6
:10B154000D79854206D00968F1E7D26814680C605D
:10B164001360F3E701300A28E8D14FF0FF30EDE730
:10B174008432002038B5084B0125D3F8104483F8F5
:10B18400205404B938BDE3685D71236820465B68C8
:10B194009847E3681C68F4E78432002030B5C3881C
:10B1A40085B004460D4633B1144A00921449154A39
:10B1B4002846FDF797F8217A05291DD0637A4BB10B
:10B1C400A088FFF7F1FD104B104953F820202846C2
:10B1D400FDF788F8227A0E4BA08853F822200392B8
:10B1E4000021FFF7C5FD039A0A490346284605B026
:10B1F400BDE83040FDF776B805B030BD24910300BA
:10B204000C91030004910300909103001FA5030017
:10B21400B49103002991030007B503460846197A3F
:10B22400052911D05B7A2BB1094A0A490190FDF72F
:10B2340059F8019808490190FDF754F8019803B0B2
:10B244005DF804EBFDF743B8002AF8D0F2E700BF3D
:10B25400249103001FA50300219103002DE9F0436D
:10B2640085B01F460C9D002395F80C902B73064661
:10B274000C46904629463846FFF790FFB8F1060F72
:10B2840009D8DFE808F00412181F283340003146BB
:10B294002846FDF727F8002229463846FFF7BCFF69
:10B2A40085F80C9005B0BDE8F08322683146284645
:10B2B400FDF718F8EFE7D4E9002331462846FDF7F7
:10B2C40011F8E8E7A36800933146D4E9002328463F
:10B2D400FDF708F8DFE7E3680193A36800933146BC
:10B2E400D4E900232846FCF7FDFFD4E72369029341
:10B2F400E3680193A36800933146D4E90023284608
:10B30400FCF7F0FFC7E76369039323690293E368DB
:10B314000193A36800933146D4E900232846FCF73F
:10B32400E1FFB8E708292DE9F74F80460E46174696
:10B334001C463DD800251B7B2573214610460193EE
:10B34400FFF72CFFDFF88CA0DFF88CB0AE4232D9C7
:10B3540018F8052059462046FCF7C4FF0135082D8E
:10B36400F4D11B49DFF874A0DFF874B02046FCF771
:10B37400B9FF4FF000094E4524D918F809507E2D25
:10B384001ED8284606F026FE002814BF2A462E2280
:10B3940059462046FCF7A6FF09F10109B9F1080F47
:10B3A400E9D1012221463846FFF736FF019B23737A
:10B3B40003B0BDE8F08F51462046FCF793FFCDE77C
:10B3C4002E22E5E751462046FCF78CFFE4E700BF58
:10B3D4003D91030039910300339103003B91030035
:10B3E4003F91030028B139B10023C1E90030184668
:10B3F400704748F21050704748F21350704730B10C
:10B40400036848F240508B4208BF0020704748F25E
:10B414001050704730B119B10B68934205D30A60DC
:10B424000020704748F21350704748F21450704798
:10B434002DE9F0410C4600AF8046114620461546E2
:10B444001E46FFF7CFFF00BB31462046FFF7CAFF79
:10B45400D8B92279104B53F82230CBB1B8F1000F90
:10B464000AD10E4931F8124034B107346A46E4086F
:10B47400A2EBC4029546E846324629464046984720
:10B4840018B9074B2B60063B3360BD46BDE8F0811D
:10B4940048F20350F9E700BFE4910300C8910300A8
:10B4A4007652464D70B505460C461E46FFF79AFF88
:10B4B40070B9AB796AB1B3420ED12979094B53F80B
:10B4C400213063B111462046984708B9064B2360E2
:10B4D40070BD48F21050FBE748F21150F8E748F20B
:10B4E4000350F5E7189203007052464D2DE9F041E0
:10B4F4000D460D4904461646FFF781FF90B967686B
:10B504003146BA792846FFF785FF58B93A79074B8F
:10B5140053F8223023B129462046BDE8F0411847AC
:10B5240048F20350BDE8F0817052464D4C9203003E
:10B53400F0B528B14079D9B18AB948F2135315E06E
:10B544001846F8E7441E00254E5D0F5D5755165505
:10B554000135013CA542F7D91B1A01440244834238
:10B56400F0D2002B48F2115218BF13461846F0BD12
:10B5740048F21053FAE700002DE9F8430D4600AFF6
:10B5840004461D49284616469846FFF738FF48BB2F
:10B594001A493046FFF733FF20BBD5F8049073688F
:10B5A400994522D199F80520396A4046FFF732FFC0
:10B5B400C0B999F80430124A52F82390B9F1000F37
:10B5C40016D054B90F4A32F8133033B107336A46F0
:10B5D400DB08A2EBC3039D466C464346324629462C
:10B5E4002046C847BD46BDE8F88348F24150F9E714
:10B5F40048F20350F6E700BF7652464D7052464D6E
:10B6040080920300B0920300F8B50A4F0A4C0B4E27
:10B61400E41B0123E40833700025A54203D102236F
:10B6240033700020F8BD57F8353098470028F9D119
:10B634000135F2E7C0870300C887030040370020C4
:10B64400054B1A78022A04D01878431E58425841F0
:10B6540070470120704700BF4037002070B51B4B76
:10B664006A469A4206460D4605D3FFF7E9FF78B9C4
:10B674004FF4054070BD164B16481749C01AC00850
:10B68400000440F00100FFF711FD48F21950F1E702
:10B69400124C236823B1124B1A68124B9A420FD0F2
:10B6A40086B97DB910481149206001F06DF8002871
:10B6B400E0D10B4B0B4A1A6023680D4A1A60D9E794
:10B6C4000020D7E748F21750D4E700BF00E003207A
:10B6D400C887030000880300C892030010500020AC
:10B6E4002C3800206572E54B4437002030380020A8
:10B6F4006169614D10B5164B6C469C420FD3DAB9A3
:10B70400144B1C68144B9C421BD1E8B913481346D4
:10B71400BDE810400A460068114901F07FB8114B9A
:10B7240011481249C01AC008000440F00100FFF794
:10B73400BDFC48F2195010BD0029E1D148F2105067
:10B74400F9E748F20250F6E748F21750F3E700BF72
:10B7540000E003202C3800206572E54B10500020D7
:10B7640030380020C887030000880300C892030013
:10B7740073B513460D460446F8B111B3144A116863
:10B78400144A914220D1144E01932A46014630684E
:10B7940001F020F848F27152904210D10022114673
:10B7A4001046FFF7A7FF50B9019B30682A4621468F
:10B7B40002B0BDE8704001F00DB848F2135002B079
:10B7C40070BD48F21450FAE748F20250F7E700BFA0
:10B7D4002C3800206572E54B105000200122FFF741
:10B7E400C7BF0022FFF7C4BF33DF704776DF70475F
:10B7F40078DF70477ADF70477CDF70478FDF7047F0
:10B80400FBF7B4B908B50020FAF77AFF08B1FBF7E3
:10B81400ADF9FBF75DF808B1FBF7A8F9FFF7E4FF12
:10B8240018B1BDE80840FBF7A1B908BD034B0448B3
:10B83400197881F00101197006F09BB8C5530020F6
:10B844000C53002010B51249124C1348FDF79FFB0E
:10B85400236881B201331148236006F046F830F0C2
:10B86400080209D020F00202112A05D043F2014255
:10B87400904201D0FBF77AF9094A23685343B3F1A4
:10B88400553F084A94BF00230123137010BD00BF25
:10B89400D452002014500020E45200200C53002005
:10B8A400ABAAAAAAC62B002008B50D490D48FDF77E
:10B8B4006EFB4FF6FE72C1B20B4805F0CDFD30F0C1
:10B8C40008020BD020F00202112A07D043F20142F1
:10B8D400904203D0BDE80840FBF748B908BD00BF5B
:10B8E40088520020985200207452002010B503881A
:10B8F400212B86B004460FD80F2B11D9103B112BE6
:10B904000ED8DFE803F00F2C0D0D0D0D0D4F5C6309
:10B914000D0D0D0D0D0D0D3C3B2B3ED0562B3CD08B
:10B9240006B010BD354B36483649C01AC00800046D
:10B9340040F00300FFF7BAFB0720FAF7E1FE08B175
:10B94400FBF714F9304BA1883048198003F040FB11
:10B954000028E5D006B0BDE81040FBF707B9274B37
:10B964002748227A2A49C01AC008000440F003007C
:10B97400FFF7A0FB244B4FF6FF721A80D0E7002399
:10B9840080888DF8143005A98DF81530FFF736FF3F
:10B994000028C5D0FBF7EAF8C2E7A0881321FFF717
:10B9A40025FFD5E71648154B1A49C01AC0080004EC
:10B9B40040F0030006B0BDE81040FFF777BB104825
:10B9C4000E4B1549C01AC0080004F1E7437A0B4A2C
:10B9D4000B481249801A627B0292227B0192A27A5E
:10B9E400C008C2F3C00200040092C3F38003227AA9
:10B9F40040F00300FFF78BFB92E700BFC88703000A
:10BA040000880300E1920300C42B00205C53002053
:10BA1400EC92030005930300229303004193030077
:10BA24000A8840F677239A4210B50C460BD1094B8D
:10BA340009484A88C01AC00800048B88074940F0A6
:10BA44000300FFF740FB21460548BDE8104005F020
:10BA540093BF00BFC88703000088030097930300C7
:10BA64000C53002008B503784BB9054B3B211888CB
:10BA7400FFF7BCFE18B1BDE80840FBF777B808BD76
:10BA8400C42B0020072808B513D00A280DD0042899
:10BA940019D10D4B13211888FFF7A8FE30F00803C5
:10BAA40011D0BDE80840FBF761B8BDE80840FFF7D6
:10BAB400A9BE054B1A884FF6FF739A4203D1034877
:10BAC40001F0CEFCEAE708BDC42B00201C50002086
